:020000040800F2
:10000000000008203D600008C55F0008C75F0008C9
:10001000C95F0008CB5F0008CD5F0008000000004A
:10002000000000000000000000000000CF5F00089A
:10003000D15F000800000000D35F0008D55F000812
:100040008D6000088D6000088D6000088D600008DC
:100050008D6000088D6000088D6000088D600008CC
:100060008D6000088D6000088D6000088D600008BC
:100070008D6000088D6000088D6000088D600008AC
:100080008D6000088D6000088D6000088D6000089C
:100090008D6000088D6000088D6000088D6000088C
:1000A0008D6000088D6000088D6000088D6000087C
:1000B0008D6000088D6000088D6000088D6000086C
:1000C0008D6000088D6000088D6000088D6000085C
:1000D0008D6000088D6000088D6000088D6000084C
:1000E0008D6000088D6000088D6000088D6000083C
:1000F0008D6000088D6000088D6000088D6000082C
:100100008D6000088D6000088D6000088D6000081B
:100110008D6000088D600008DD5F00088D600008BC
:100120008D6000088D6000088D6000088D600008FB
:100130008D6000088D6000088D6000088D600008EB
:100140008D6000088D6000088D6000088D600008DB
:100150008D6000088D6000088D6000088D600008CB
:100160008D6000088D6000088D6000088D600008BB
:100170008D6000088D6000088D60000800000000A0
:100180008D6000088D6000088D6000088D6000089B
:100190008D6000088D6000088D6000088D6000088B
:1001A0008D6000088D6000088D6000088D6000087B
:1001B0008D6000088D6000088D6000088D6000086B
:1001C0008D6000088D600008000000008D60000850
:1001D0008D6000088D6000088D6000088D6000084B
:1001E0008D6000088D6000088D6000088D6000083B
:0801F0008D6000088D6000081D
:1001F80010B5054C237833B9044B13B10448AFF359
:1002080000800123237010BD9C0000200000000026
:100218002478000808B5034B1BB103490348AFF322
:10022800008008BD00000000A0000020247800081D
:1002380053B94AB9002908BF00281CBF4FF0FF3145
:100248004FF0FF3000F072B9ADF1080C6DE904CE43
:1002580000F006F8DDF804E0DDE9022304B0704799
:100268002DE9F047089E04468846002B4BD18A4268
:10027800154667D9B2FA82F24AB1C2F1200701FAEB
:1002880002F320FA07F7954047EA030894404FEA3B
:10029800154E230CB8FBFEF71FFA85FC0EFB1788DA
:1002A80043EA084307FB0CF1994209D9EB1807F117
:1002B800FF3080F01B81994240F21881023F2B44A5
:1002C8005B1AA4B2B3FBFEF00EFB103344EA0344FE
:1002D80000FB0CFCA44509D92C1900F1FF3380F070
:1002E8000781A44540F2048102382C4440EA0740C3
:1002F800A4EB0C0400271EB1D4400023C6E9004338
:100308003946BDE8F0878B4209D9002E00F0EB8012
:100318000027C6E9000138463946BDE8F087B3FA38
:1003280083F7002F47D18B4202D3824200F2FA8032
:10033800841A61EB030301209846002EE0D0C6E939
:100348000048DDE702B9FFDEB2FA82F2002A40F087
:100358008F80491B4FEA154E1FFA85F80127B1FB1C
:10036800FEFC230C0EFB1C1143EA014308FB0CF1B5
:10037800994207D9EB180CF1FF3002D2994200F2EA
:10038800CD808446591AA3B2B1FBFEF00EFB1014BF
:1003980043EA044408FB00F8A04507D92C1900F1EA
:1003A800FF3302D2A04500F2B6801846A4EB080439
:1003B80040EA0C409FE7C7F1200CBB4022FA0CFE34
:1003C8004EEA030E01FA07F420FA0CF521FA0CF3B1
:1003D8004FEA1E482543B3FBF8F92C0C08FB1933E8
:1003E8001FFA8EFA44EA034309FB0AF49C4202FA14
:1003F80007F200FA07F10BD91EEB030309F1FF30EE
:1004080080F087809C4240F28480A9F102097344FD
:100418001B1BADB2B3FBF8F008FB103345EA0344ED
:1004280000FB0AFAA24508D91EEB040400F1FF33C9
:100438006BD2A24569D90238744440EA0940A0FB4E
:100448000289A4EB0A044C45C2464B4654D351D00A
:10045800002E69D0B1EB0A0564EB030404FA0CFC26
:10046800FD40FC404CEA0505C6E90054002747E773
:10047800C2F1200320FA03F7954001FA02F021FAAD
:1004880003F34FEA154E3843010CB3FBFEF71FFA8E
:1004980085F80EFB173341EA034107FB08F38B424B
:1004A80004FA02F407D9691807F1FF3C2FD28B42EE
:1004B8002DD9023F2944CB1A81B2B3FBFEF00EFBC3
:1004C800103341EA034100FB08F38B4207D969184E
:1004D80000F1FF3C17D28B4215D902382944C91ABA
:1004E80040EA07473BE73746304609E70746E7E66D
:1004F8001846FBE64145ABD2B8EB020A69EB0E029F
:1005080001381346A4E76046E9E7184695E76746C9
:10051800D1E781467CE702382C4447E7ACF1020C6E
:100528002B442FE7384608E73746E9E6704700BF0F
:1005380010B504460E4B18784FF47A73B3FBF0F3FA
:100548000C4A1068B0FBF3F000F09AF868B90F2C69
:1005580001D901200AE0002221464FF0FF3000F0C7
:100568004FF8034B5C60002000E0012010BD00BF85
:10057800000000203000002008B5032000F02EF80D
:100588000020FFF7D5FF05F01DFA002008BD000088
:10059800034A1168034B1B780B441360704700BF74
:1005A8002801002000000020014B1868704700BF98
:1005B8002801002038B50446FFF7F6FF0546B4F1D8
:1005C800FF3F02D0044B1B781C44FFF7EDFF401B94
:1005D800A042FAD338BD00BF000000200649CB680E
:1005E80023F4E0631B041B0C000200F4E0600343E7
:1005F800024A1A43CA60704700ED00E00000FA059D
:1006080030B4154BDB68C3F30223C3F10704042C91
:1006180028BF04241D1D062D14D9033B4FF0FF35B8
:1006280005FA04F421EA0401994005FA03F322EAE1
:1006380003031943002807DB0901C9B2074B195402
:1006480030BC70470023E9E700F00F000901C9B288
:10065800034B1954F4E700BF00ED00E000E400E0AC
:1006680014ED00E0002807DB00F01F024009012319
:100678009340024A42F82030704700BF00E100E092
:100688000138B0F1807F0AD2064B5860064AF02143
:1006980082F823100020986007221A607047012012
:1006A800704700BF10E000E000ED00E050791379DA
:1006B80043EA002307480B50D07893781B0443EA99
:1006C8000063507843EA002312781343024A8B50A0
:1006D800704700BF408002404480024070B59EB021
:1006E800044629B14FF40063C3604FF4804383602C
:1006F800E369002B68D14FF48063079321680B6886
:10070800374A1A40A368E06803430798034343F451
:10071800007313430B6023681D680120FFF74AFF2D
:1007280023681D60236840225A6023685D680120A1
:10073800FFF740FF23685D60236800259D602368FC
:10074800DD602268936923F0BE031B041B0C43F091
:100758008003936123689E690120FFF72BFF2368BC
:100768009E612368DD612368DD690120FFF722FFB0
:100778002368DD61216841F218054B59194A1A406E
:10078800194B13434B5123685E590120FFF712FFA1
:1007980023685E51236803F58053144A1A6023685E
:1007A80003F580531D680120FFF704FF236803F554
:1007B80080531D60A369012B09D06269002120467E
:1007C800FFF774FF1EB070BD0023079396E72168FA
:1007D80041F21C028858064B03438B50EDE700BFDB
:1007E8000F8120FF233FDEF8040020028020C10291
:1007F80040000100F8B590F84430DBB2822B33D0CA
:1008080016460546822380F844300268136903F0CF
:100818001C03048AE402A4B223438C0104F4F864A0
:100828001C4344F001041461FFF7BEFE074614F0B0
:10083800010F10D0FFF7B8FEC01BB0F5803F02D201
:100848002B681C69F3E7012385F84430002385F8F9
:100858004530032007E02B685B699BB233600123B6
:1008680085F844300020F8BD0220FCE790F84430B9
:10087800DBB2422B32D070B50546422380F84430B3
:100888000068036903F01C032C8AE402A4B2234322
:100898008C0104F4F8641C4344F0030492B24261EE
:1008A8002B681C61FFF780FE064614F0010F10D07C
:1008B800FFF77AFE801BB0F5803F02D22B681C69D7
:1008C800F3E7012385F84430002385F845300320F9
:1008D80003E0012385F84430002070BD02207047F2
:1008E80070B582B000230193002800F00C81044603
:1008F80090F84430002B32D0844B5A6C42F480423A
:100908005A645B6C03F480430093009B804B5A68E5
:1009180022F400025A605A68216A0A435A6023681E
:1009280003F580531A6842F001021A60FFF73CFE93
:100938000546236803F58052126812F0010F13D0A0
:10094800FFF732FE401BB0F5FA7FF2D9032584F891
:100958004450002384F84530284602B070BD80F822
:10096800453005F047F8C7E71D6925F01C0500F07C
:100978002DFD684B0344684A934255D845F0080555
:1009880023681D614FF4004200212046FFF76EFFE7
:100998000546002860D1FF20FFF70CFE6368002B96
:1009A80000F09180FFF700FE064601AA01212046CB
:1009B800FFF720FFFFF7F8FD801B41F288339842CC
:1009C80052D8019B13F0040FEFD04FF4805200214E
:1009D8002046FFF74BFF002852D1FFF7E5FD0646FA
:1009E80001AA01212046FFF705FFFFF7DDFD801B67
:1009F80041F2883398424BD8019B13F0200FEFD077
:100A080001AA1F212046FFF7F5FE00284CD1019BC3
:100A180013F0100F50D04FF40062E26013F0040F8F
:100A28004DD00023A3605EE03C4B03443C4A934214
:100A380002D845F00C05A3E73A4B03443A4A9342DF
:100A48009ED93A4B03443A4A934202D845F00405EA
:100A580096E745F0100593E701212046FFF73EFE93
:100A6800012584F8445077E701212046FFF736FE38
:100A7800012384F84430002384F8453003256BE7CC
:100A880001212046FFF72AFE012584F8445063E738
:100A980001212046FFF722FE012384F84430002379
:100AA80084F84530032557E701212046FFF716FE55
:100AB800012584F844504FE70022E260AEE74FF486
:100AC8008043A3600FE0E268C2F3CF02A368C3F3D8
:100AD8004F031A4300212046FFF7C8FE58B940F6D5
:100AE800FF70FFF767FD00212046FFF7F7FD0123A0
:100AF80084F8443030E701212046FFF7EFFD012557
:100B080084F8445028E7012526E700BF0038024052
:100B18000038014000D3CEFEBFE1E40040F1E9FD1A
:100B28003F787D0100796CFCFF596202001F0AFAC8
:100B38007FF0FA0200230F2B00F2E280F0B482B0BB
:100B480039E0092200E00022B2403A4302346D4EF7
:100B580046F824206C4A1468EA4302EA04064F68FF
:100B680017F4803F01D045EA0406674C26606468A4
:100B780002EA04064F6817F4003F01D045EA04066C
:100B8800614C6660A46802EA04064F6817F4801F87
:100B980001D045EA04065C4CA660E46822404E6831
:100BA80016F4001F01D045EA0402574CE2600133F5
:100BB8000F2B00F2A28001229A400C6804EA020579
:100BC800AA42F4D14C68122C18BF022C10D1DE08AE
:100BD800083650F826C003F00704A7000F24BC40CD
:100BE8002CEA040C0C69BC4044EA0C0440F826408A
:100BF80004685F000326BE40F64306EA040C4C680E
:100C080004F00304BC4044EA0C0404604C6804F19A
:100C1800FF3C112C18BFBCF1010F01D9122C11D1C6
:100C2800846806EA040CCC68BC4044EA0C0484607E
:100C3800446824EA020C4C68C4F300129A4042EA61
:100C48000C024260C26816408A68BA403243C260E9
:100C58004A6812F0805FAAD02C4A546C44F480444D
:100C68005464526C02F480420192019A9C08A61CBA
:100C7800244A52F8267003F0030296000F22B2406D
:100C880027EA0207224A90423FF45DAF02F58062EC
:100C9800904222D002F58062904220D002F5806214
:100CA80090421ED002F5806290421CD002F580620C
:100CB80090421AD002F58062904218D002F5806204
:100CC800904216D002F58062904214D002F58062FC
:100CD80090423FF436AF0A2236E7012234E7022277
:100CE80032E7032230E704222EE705222CE706220A
:100CF8002AE7072228E7082226E702B0F0BC704757
:100D0800704700BF00380140003C014000380240F5
:100D1800000002400369194201D1002070470120F8
:100D2800704712B9090481617047816170470000FA
:100D3800024A136843F480731360704700700040E0
:100D480010B582B01B4B1A6C42F080521A641B6CAF
:100D580003F080530193019B174A136843F48033CF
:100D68001360FFF721FC0446134B5B6813F4803FC4
:100D780008D1FFF719FC001BB0F57A7FF4D90320DE
:100D880002B010BD0C4A136843F400331360FFF738
:100D98000BFC0446084B5B6813F4003F07D1FFF7D0
:100DA80003FC001BB0F57A7FF4D90320E8E70020A4
:100DB800E6E700BF0038024000700040002800F05D
:100DC800DC8170B582B00446036813F0010F29D0A6
:100DD800A24B9B6803F00C03042B1AD09F4B9B6813
:100DE80003F00C03082B0FD06368B3F5803F40D0A5
:100DF800002B54D1994B1A6822F480321A601A6871
:100E080022F480221A6039E0944B5B6813F4800F57
:100E1800EAD0924B1B6813F4003F03D06368002BA1
:100E280000F0AD81236813F0020F75D08B4B9B68DF
:100E380013F00C0F5ED0894B9B6803F00C03082B52
:100E480053D0E368002B00F08A80844A136843F08B
:100E580001031360FFF7A8FB0546804B1B6813F0DE
:100E6800020F73D1FFF7A0FB401B0228F5D903201E
:100E780088E17A4A136843F48033136063682BB3BC
:100E8800FFF792FB0546754B1B6813F4003FC9D169
:100E9800FFF78AFB401B6428F5D9032072E1B3F5FC
:100EA800A02F09D06D4B1A6822F480321A601A6894
:100EB80022F480221A60E1E7684B1A6842F4802223
:100EC8001A601A6842F480321A60D7E7FFF76CFBA1
:100ED8000546624B1B6813F4003FA3D0FFF764FB81
:100EE800401B6428F5D903204CE15C4B5B6813F484
:100EF800800FA6D1594B1B6813F0020F04D0E3688A
:100F0800012B01D001203DE1544A136823F0F80376
:100F1800216943EAC1031360236813F0080F46D020
:100F2800636983B34D4A536F43F001035367FFF777
:100F38003BFB0546494B5B6F13F0020F37D1FFF7B8
:100F480033FB401B0228F5D903201BE1434A1368F1
:100F580023F0F803216943EAC1031360DCE73F4A41
:100F6800136823F001031360FFF71EFB05463B4B94
:100F78001B6813F0020FCFD0FFF716FB401B0228A7
:100F8800F5D90320FEE0354A536F23F00103536778
:100F9800FFF70AFB0546314B5B6F13F0020F06D0D3
:100FA800FFF702FB401B0228F5D90320EAE023687B
:100FB80013F0040F7ED0294B1B6C13F0805F1ED1F9
:100FC800264B1A6C42F080521A641B6C03F0805353
:100FD8000193019B0125224B1B6813F4807F10D0DD
:100FE800A368012B21D0002B3CD11C4B1A6F22F097
:100FF80001021A671A6F22F004021A671AE0002524
:10100800E9E7174A136843F480731360FFF7CCFAD3
:101018000646134B1B6813F4807FE1D1FFF7C4FA2F
:10102800801B6428F5D90320ACE00C4A136F43F009
:1010380001031367A3685BB3FFF7B6FA0646074BCD
:101048001B6F13F0020F34D1FFF7AEFA801B41F289
:1010580088339842F3D9032094E000BF0038024057
:1010680000700040052B09D0484B1A6F22F001028E
:101078001A671A6F22F004021A67DBE7434B1A6FEC
:1010880042F004021A671A6F42F001021A67D1E7A8
:10109800FFF78AFA06463D4B1B6F13F0020F08D084
:1010A800FFF782FA801B41F288339842F3D9032074
:1010B80068E0F5B9A369002B63D0344A926802F05E
:1010C8000C02082A60D0022B19D0304A136823F08A
:1010D80080731360FFF768FA04462C4B1B6813F003
:1010E800007F48D0FFF760FA001B0228F5D90320DB
:1010F80048E0264A136C23F080531364DAE7234A46
:10110800136823F080731360FFF74EFA05461F4BF0
:101118001B6813F0007F06D0FFF746FA401B022831
:10112800F5D903202EE0E369226A1343626A43EA91
:101138008213A26A5208013A43EA0243E26A43EA86
:101148000263226B43EA0273104A5360136843F048
:1011580080731360FFF728FA04460C4B1B6813F0E2
:10116800007F06D1FFF720FA001B0228F5D90320DB
:1011780008E0002006E0002004E00120704701207C
:1011880000E0002002B070BD0120FBE700380240FB
:10119800324B9B6803F00C03042B5CD0082B01D066
:1011A8002F4870472DE9F04B2C4B5A6802F03F024C
:1011B8005B6813F4800F2BD0284B5B68C3F388134C
:1011C8001E4600275C010025E41A65EB0705A90106
:1011D80041EA9461A001001B61EB0501CB0043EAE1
:1011E8005073C400A01943EB07014B0243EAD053E4
:1011F8004402204619460023FFF71AF8174B5B688C
:10120800C3F3014301335B00B0FBF3F0BDE8F08B9F
:10121800124B5B68C3F388131E4600275C01002548
:10122800E41A65EB0705A90141EA9461A001001BD6
:1012380061EB0501CB0043EA5073C400A01943EBEE
:1012480007018B0243EA9053840220461946002383
:10125800FEF7EEFFD2E70348704700BF00380240B0
:101268000024F40000127A00002800F0A28070B573
:101278000446524B1B6803F00F038B420CD24F4AB3
:10128800136823F00F030B431360136803F00F0375
:101298008B4201D0012070BD236813F0020F17D0D4
:1012A80013F0040F04D0464A936843F4E053936064
:1012B800236813F0080F04D0414A936843F460434D
:1012C80093603F4A936823F0F003A0680343936058
:1012D8000D46236813F0010F31D06368012B20D02D
:1012E800022B25D0364A126812F0020F63D0344917
:1012F8008A6822F0030213438B60FFF755F906460C
:101308002F4B9B6803F00C036268B3EB820F16D077
:10131800FFF74AF9801B41F288339842F0D903203D
:10132800B9E7274A126812F4003FE0D10120B2E77A
:10133800234A126812F0007FD9D10120ABE71F4B76
:101348001B6803F00F03AB420CD91C4A136823F047
:101358000F032B431360136803F00F03AB4201D054
:10136800012098E7236813F0040F06D0144A936805
:1013780023F4E053E1680B439360236813F0080FEC
:1013880007D00F4A936823F46043216943EAC103F5
:101398009360FFF7FDFE0A4B9B68C3F30313094AEA
:1013A800D35CD840084B18600020FFF7C1F8002034
:1013B80071E70120704701206DE700BF003C024043
:1013C800003802404078000830000020014B1868BF
:1013D800704700BF3000002008B5FFF7F7FF044B47
:1013E8009B68C3F38223034AD35CD84008BD00BF7F
:1013F800003802405078000808B5FFF7E7FF044BB3
:101408009B68C3F34233034AD35CD84008BD00BF8E
:101418000038024050780008F0B583B004460368ED
:1014280013F0010F0CD0B54B9A6822F400029A60B1
:101438009A68416B0A439A60436BC3B1002600E087
:101448000026236813F4002F15D0AC4AD2F88C304C
:1014580023F44013E16B0B43C2F88C30E36BB3F514
:10146800801F06D0002B00F04581002504E00126EE
:10147800E7E70126F6E70025236813F4801F0FD05D
:101488009E4AD2F88C3023F44003216C0B43C2F8F7
:101498008C30236CB3F5800F00F02E8103B9012541
:1014A800236813F0807F00D0012613F0200F40F04E
:1014B8002781236813F0100F0CD0904BD3F88C20A1
:1014C80022F08072C3F88C20D3F88C20A16B0A43D9
:1014D800C3F88C20236813F4804F08D0874AD2F8C9
:1014E800903023F44033616E0B43C2F89030236888
:1014F80013F4004F08D0814AD2F8903023F44023E7
:10150800A16E0B43C2F89030236813F4803F08D0D3
:101518007A4AD2F8903023F44013E16E0B43C2F8B4
:101528009030236813F4003F08D0744AD2F8903002
:1015380023F44003216F0B43C2F89030236813F063
:10154800400F08D06D4AD2F8903023F00303616C45
:101558000B43C2F89030236813F0800F08D0674A15
:10156800D2F8903023F00C03A16C0B43C2F89030F2
:10157800236813F4807F08D0604AD2F8903023F0B3
:101588003003E16C0B43C2F89030236813F4007FFA
:1015980008D05A4AD2F8903023F0C003216D0B438B
:1015A800C2F89030236813F4806F08D0534AD2F8F9
:1015B800903023F44073616D0B43C2F89030236878
:1015C80013F4006F08D04D4AD2F8903023F44063EA
:1015D800A16D0B43C2F89030236813F4805F08D0E4
:1015E800464AD2F8903023F44053E16D0B43C2F8D9
:1015F8009030236813F4005F08D0404AD2F8903046
:1016080023F44043216E0B43C2F89030236813F44F
:10161800800F08D0394AD2F8903023F08063A16F48
:101628000B43C2F89030236813F4001F0DD0334ADF
:10163800D2F8903023F00063E16F0B43C2F890308A
:10164800E36FB3F1006F00F0C180236813F0080F57
:1016580000D0012513F4802F08D0284AD2F8903002
:1016680023F04073616F0B43C2F89030236813F482
:10167800000F09D0214AD2F8903023F08053D4F8D3
:1016880080100B43C2F89030236813F0806F09D0A4
:101698001A4AD2F8903023F00053D4F884100B4340
:1016A800C2F89030236813F0006F09D0134AD2F8BB
:1016B8008C3023F00073D4F888100B43C2F88C30B8
:1016C800236813F0805F09D00C4AD2F88C3023F0DD
:1016D8008063D4F88C100B43C2F88C30002E77D17D
:1016E8002368B3F1007F73D0002D40F004810020FF
:1016F80003B0F0BD0125BFE60126CFE60038024061
:10170800B74B1A6C42F080521A641B6C03F080537A
:101718000193019BB34A136843F480731360FEF787
:1017280043FF0746AF4B1B6813F4807F06D1FEF7D3
:101738003BFFC01B6428F5D90320D9E7A84B1B6FD2
:1017480013F4407315D0226B02F440729A4210D001
:10175800A34B1A6F22F44072196F41F48031196754
:10176800196F21F4803119671A671B6F13F0010F85
:1017780012D1236B03F44072B2F5407F1DD0984A12
:10178800936823F4F813936095490B6F226BC2F3A7
:101798000B0213430B678CE6FEF706FF0746904BD8
:1017A8001B6F13F0020FE4D1FEF7FEFEC01B41F2DF
:1017B80088339842F3D903209AE78948826822F44B
:1017C800F812894919400A438260DDE701253CE7A0
:1017D800834A136823F080631360FEF7E5FE06462C
:1017E8007F4B1B6813F0006F06D0FEF7DDFE801BF1
:1017F8006428F5D903207BE7236813F0010F13D081
:10180800636B8BB9764AD2F88430D2F8841060685A
:1018180003F4403343EA801301F070610B43A1687D
:1018280043EA0173C2F88430236813F4002F03D00D
:10183800E26BB2F5801F06D013F4801F1ED0236C14
:10184800B3F5800F1AD1664AD2F88430D2F88410E2
:10185800606803F4403343EA8013E06843EA0063B6
:1018680001F0E0410B43C2F88430D2F88C3023F009
:101878001F03616A01390B43C2F88C30236813F0E7
:10188800807F11D0564AD2F88400D2F88410666856
:1018980023691B0443EA861300F07060034301F0D8
:1018A800E0410B43C2F88430236813F0007F0DD069
:1018B800626823691B0443EA8213E26843EA02630D
:1018C800A26843EA0273464AC2F88430444A13685D
:1018D80043F080631360FEF767FE0646404B1B68C3
:1018E80013F0006F7FF400AFFEF75EFE801B6428E4
:1018F800F4D90320FCE63A4A136823F080531360B6
:10190800FEF752FE0546364B1B6813F0005F06D003
:10191800FEF74AFE401B6428F5D90320E8E6236851
:1019280013F4002F01D0E26B22B113F4801F1DD0F5
:10193800236CDBB92A4AD2F88830D2F8881060695B
:1019480003F4403343EA8013A06943EA006301F0DB
:10195800E0410B43C2F88830D2F88C3023F4F853B6
:10196800A16A013943EA0123C2F88C30236813F4D1
:10197800001F03D0E36FB3F1006F37D0236813F073
:10198800080F19D0164AD2F88810D2F88830606942
:1019980003F4403343EA801301F070610B43E169BB
:1019A80043EA0173C2F88830D2F88C3023F440330C
:1019B800E16A0B43C2F88C30094A136843F080533C
:1019C8001360FEF7F1FD0446054B1B6813F0005F3A
:1019D8001FD1FEF7E9FD001B6428F5D9032087E62F
:1019E8000038024000700040FFFCFF0F0A4AD2F89E
:1019F8008800D2F888106569236A1B0443EA8513B6
:101A080000F07060034301F0E0410B43C2F88830F6
:101A1800B4E700206CE600BF00380240F8B5054680
:101A28000F4616461C462B689B6837EA03030CBF13
:101A380001230023B34237D0B4F1FF3FF3D0FEF7C0
:101A4800B3FD069BC01AA04201D2002CEBD12A6834
:101A5800536823F0E00353606B68B3F5827F0BD0C3
:101A6800AB6AB3F5005F14D0012385F85D3000231D
:101A780085F85C30032018E0AB68B3F5806F18BFB9
:101A8800B3F5004FECD12A68136823F040031360C4
:101A9800E6E72A68136823F4005313602A6813687A
:101AA80043F400531360DFE70020F8BDF8B507469C
:101AB8000D4614461E4602E0B6F1FF3F0BD13A68C8
:101AC80093682B40A3423BD0B5F5C06F08BF002CEC
:101AD800F2D1137BF0E7FEF767FD069BC01AB04210
:101AE80001D2002EEBD13A68536823F0E00353602B
:101AF8007B68B3F5827F0BD0BB6AB3F5005F14D067
:101B0800012387F85D30002387F85C30032018E054
:101B1800BB68B3F5806F18BFB3F5004FECD13A68D6
:101B2800136823F040031360E6E73A68136823F468
:101B3800005313603A68136843F400531360DFE7F7
:101B48000020F8BD70B582B004460D4616460092D6
:101B58000B4600224FF4C051FFF7A8FFB8B9009612
:101B68002B46002280212046FFF758FFB8B900967F
:101B78002B4600224FF4C0612046FFF797FF03462B
:101B880050B1236E43F020032366032304E0236E41
:101B980043F0200323660323184602B070BD236E6A
:101BA80043F0200323660323F6E7002858D010B536
:101BB80004460023836290F85D30002B45D0022351
:101BC80084F85D302268136823F040031360E368EB
:101BD800B3F5E06F3ED90022B3F5706F18BFB3F5C7
:101BE800E06F01D00021A162216B21B9B3F5E06F4C
:101BF80033D9022323636368A1680B4321690B432C
:101C080061690B43A16901F400710B43E1690B435E
:101C1800216A0B43A06A216803430B60638B03F0BE
:101C28000403616A0B43616B0B43E1680B43216852
:101C380013434B602268D36923F40063D361002007
:101C48002066012384F85D3010BD80F85C3003F015
:101C580059FFB4E74FF48052BEE701232363CAE774
:101C6800012070472DE9F843DDF8208090F85C40AA
:101C7800012C00F05D811D4617460E4604460123DF
:101C880080F85C30FEF790FC814694F85D00C0B2A5
:101C98006368012814D0B3F5827F09D0022301229A
:101CA80084F85D20002284F85C201846BDE8F8839B
:101CB800A368002B40F03081042801D00223EEE70E
:101CC800B7FA87F35B09002E08BF0123002B40F009
:101CD8002581002D00F0248194F85D30DBB2042BBF
:101CE80002D0052384F85D30002323662764A4F816
:101CF8004650A4F84450A663E587A587E3642365A6
:101D0800E368B3F5E06F01D8012D22D92268536842
:101D180023F48053536023681A6812F0400F03D1EC
:101D28001A6842F040021A60E368B3F5E06F56D9CA
:101D380063680BB1012D0AD1A26B23681288DA609F
:101D4800A36B0233A363E38F013B9BB2E3870125B7
:101D580025E02268536843F480535360DBE7236827
:101D68009A6812F0010F10D0B4F8462092B262B10E
:101D7800DA68236C1A80236C02332364B4F8463083
:101D8800013B9BB2A4F846300125FEF70DFCA0EB01
:101D98000900404503D3B8F1FF3F40F0C380E38F0B
:101DA8009BB22BB9B4F846309BB2002B00F0A78049
:101DB80023689A6812F0020FD1D0E28F92B2002AFB
:101DC800CDD0002DCBD0A26B1288DA60A36B023382
:101DD800A363E38F013B9BB2E3870025BFE76368FA
:101DE8000BB1012D0ED1E38F9BB2012B0CD9A26B45
:101DF80023681288DA60A36B0233A363E38F023B84
:101E08009BB2E387012547E0A26B236812781A7317
:101E1800A36B0133A363E38F013B9BB2E387F1E735
:101E2800E28F92B2012A0BD9A26B1288DA60A36BF7
:101E38000233A363E38F023B9BB2E38700253CE0B8
:101E4800A26B12781A73A36B0133A363E38F013B70
:101E58009BB2E387002530E02268536843F480533F
:101E6800536001250CE0226C1B7B1370236C01333B
:101E78002364B4F84630013B9BB2A4F846300125F0
:101E8800FEF792FBA0EB0900404502D3B8F1FF3FF3
:101E98004AD1B8F1000F49D0E38F9BB21BB9B4F80F
:101EA80046309BB25BB323689A6812F0020F04D0E5
:101EB800E28F92B20AB1002DB2D123689A6812F06B
:101EC800010FDDD0B4F8462092B2002AD8D0B4F879
:101ED800462092B2012AC6D9DA68236C1A80236C8C
:101EE80002332364B4F84630023B9BB2A4F8463070
:101EF800B4F846309BB2012BAED90125C0E74A465B
:101F080041462046FFF71EFE034600283FF4C7AEB1
:101F1800202323660123C2E60223C0E60123BEE68E
:101F28000123BCE60323BAE60323B8E60323B6E697
:101F38000223BAE670B4036A23F001030362036A5A
:101F480042688569124C2C400D68254323F0020431
:101F58008B6823430F4C104EB04218BFA0420CBFF1
:101F68000124002405D123F00803CE68334323F06D
:101F780004032CB122F440724C6914438A69224349
:101F8800426085614A684263036270BC704700BF63
:101F98008CFFFEFF000001400004014070B4036A9A
:101FA80023F480730362036A4268C569144C2C40A9
:101FB8000E68264323F400738C6843EA0423114C0B
:101FC800114DA84218BFA0420CBF0124002406D11D
:101FD80023F40063CD6843EA052323F480633CB10E
:101FE80022F440524C6942EA04128C6942EA041213
:101FF8004260C6614A68C263036270BC704700BF32
:102008008CFFFEFF000001400004014070B4036A29
:1020180023F480530362036A4468C5690D4A2A4061
:102028000D6842EA052223F400538D6843EA05331C
:10203800094E0A4DA84218BFB04204D124F4804486
:102048004D6944EA85144460C2614A6802640362C7
:1020580070BC7047FF8CFFFE000001400004014087
:1020680070B4036A23F480330362036A4268446DE0
:102078000D4D25400C682C4323F400338D6843EA4A
:1020880005430A4E0A4DA84218BFB04204D122F4B3
:1020980080324D6942EA0522426044654A68826599
:1020A800036270BC704700BF8FFFFEFF0000014055
:1020B8000004014070B4036A23F480130362036AC6
:1020C8004468456D0D4A2A400D6842EA052223F40A
:1020D80000138D6843EA0553094E0A4DA84218BFFC
:1020E800B04204D124F480244D6944EA8524446034
:1020F80042654A68C265036270BC7047FF8FFFFE85
:1021080000000140000401400268D36843F0010365
:10211800D36002689168064B0B40062B18BFB3F5D5
:10212800803F03D0136843F0010313600020704719
:10213800070001007047704770477047704710B537
:10214800044603681A6912F0020F11D0DA6812F017
:10215800020F0DD06FF002021A61012303770368A2
:102168009B6913F0030F79D0FFF7E6FF002323776D
:1021780023681A6912F0040F12D0DA6812F0040FFB
:102188000ED06FF004021A610223237723689B693B
:1021980013F4407F68D02046FFF7CEFF0023237753
:1021A80023681A6912F0080F12D0DA6812F0080FC3
:1021B8000ED06FF008021A61042323772368DB69C5
:1021C80013F0030F57D02046FFF7B6FF00232377FD
:1021D80023681A6912F0100F12D0DA6812F0100F83
:1021E8000ED06FF010021A61082323772368DB6989
:1021F80013F4407F46D02046FFF79EFF0023237745
:1022080023681A6912F0010F03D0DA6812F0010F7F
:102218003FD123681A6912F0800F03D0DA6812F0F0
:10222800800F3DD123681A6912F4807F03D0DA68E1
:1022380012F0800F3BD123681A6912F0400F03D0C7
:10224800DA6812F0400F39D123681A6912F0200FAA
:1022580003D0DA6812F0200F37D110BDFFF76BFFFB
:102268002046FFF76AFF81E72046FFF764FF204614
:10227800FFF763FF92E72046FFF75DFF2046FFF771
:102288005CFFA3E72046FFF756FF2046FFF755FF00
:10229800B4E76FF001021A61204602F0A1FAB8E72C
:1022A8006FF080021A61204600F017FBBAE76FF45E
:1022B80080721A61204600F011FBBCE76FF0400203
:1022C8001A612046FFF73AFFBEE76FF020021A6155
:1022D800204600F001FBC0E770B403683A4CA04206
:1022E80014BF00240124B0F1804F14BF224644F0EB
:1022F8000102AAB9354DA84214BF00250125344E64
:10230800B0420DD065B905F1804505F58235A84282
:1023180014BF0025012506F50066B04200D01DB1A6
:1023280023F070034D682B43002A33D1274A90428B
:1023380014BF00220122264DA8422BD052BB02F125
:10234800804202F58232904214BF0022012205F534
:102358000065A8421ED0EAB91E4A904214BF002266
:10236800012205F59A35A84214D09AB91A4A904222
:1023780014BF0022012205F50065A8420AD04AB917
:10238800164A904214BF00220122A5F59635A842AC
:1023980000D01AB123F44073CA68134323F08003B2
:1023A8004A69134303608A68C2620A6882620C4BF6
:1023B800984214BF234644F001030BB10B69036331
:1023C8000123436170BC70470000014000080040D1
:1023D8000004004000440140001800400020004074
:1023E80000040140A8B110B5044690F83D305BB137
:1023F800022384F83D30211D2068FFF76DFF01237B
:1024080084F83D30002010BD80F83C3003F074FCA7
:10241800EEE701207047A8B110B5044690F83D30AA
:102428005BB1022384F83D30211D2068FFF754FF7B
:10243800012384F83D30002010BD80F83C30FFF7C0
:1024480079FEEEE701207047A8B110B5044690F870
:102458003D305BB1022384F83D30211D2068FFF731
:102468003BFF012384F83D30002010BD80F83C304C
:1024780003F07EFBEEE7012070470000002843D000
:10248800F8B505460C4690F83D30002B37D00223AE
:1024980085F83D30294651F8042B90681B4B0340C2
:1024A80093602868FFF718FF286881688369026AC3
:1024B80026680E43164F1F40A368A16943EA01230B
:1024C8001F43144B3B40E168E76941EA0721194380
:1024D8002769236A1B0343EA07130B4322F0AA0167
:1024E8006268646942EA04120A43866029688B615B
:1024F8002B681A62012385F83D300020F8BD80F86A
:102508003C3003F06BFBC2E701207047F8BFFEFFC9
:10251800FCFCFFFF0303FFFF70B4036A23F0100302
:102528000362036A42688569144C2C400D6844EACA
:10253800052523F020038C6843EA0413104C114E40
:10254800B04218BFA0420CBF0124002406D123F0DA
:102558008003CE6843EA061323F040033CB122F41B
:1025680040624C6942EA84028C6942EA8402426011
:1025780085614A688263036270BC7047FF8CFFFE06
:10258800000001400004014090F83C30012B34D099
:1025980010B50446012380F83C30022380F83D3012
:1025A800142A0FD8DFE802F00B0E0E0E150E0E0ED1
:1025B800190E0E0E1D0E0E0E210E0E0E25000068B1
:1025C800FFF7B8FC012384F83D30002084F83C0074
:1025D80010BD0068FFF7A0FFF4E70068FFF7DEFC16
:1025E800F0E70068FFF712FDECE70068FFF738FD39
:1025F800E8E70068FFF75EFDE4E70220704738B5BA
:1026080090F83C30012B00F092800D4604460123DF
:1026180080F83C30022380F83D30142A1ED8DFE8C9
:1026280002F00B1D1D1D241D1D1D381D1D1D4B1DDC
:102638001D1D5F1D1D1D72000068FFF77BFC2268D1
:10264800936943F0080393612268936923F00403B4
:1026580093612268936929690B439361012384F884
:102668003D30002084F83C0038BD0068FFF754FF77
:102678002268936943F4006393612268936923F4A1
:102688008063936122689369296943EA012393610E
:10269800E4E70068FFF782FC2268D36943F0080387
:1026A800D3612268D36923F00403D3612268D36914
:1026B80029690B43D361D1E70068FFF7A7FC2268BB
:1026C800D36943F40063D3612268D36923F4806338
:1026D800D3612268D369296943EA0123D361BDE73D
:1026E8000068FFF7BDFC2268536D43F0080353658B
:1026F8002268536D23F0040353652268536D2969DA
:102708000B435365AAE70068FFF7D4FC2268536DB2
:1027180043F4006353652268536D23F48063536563
:102728002268536D296943EA0123536596E702201D
:102738009AE710B401F01F01012303FA01F4036AB8
:1027480023EA04030362036A8A40134303625DF8C1
:10275800044B704710B5044601220068FFF7E9FFF3
:1027680023680C490C4A934218BF8B4203D15A6C18
:1027780042F400425A6422689168084B0B40062BC9
:1027880018BFB3F5803F03D0136843F0010313600B
:10279800002010BD000001400004014007000100B6
:1027A80010B5044661B1042916D001220021006841
:1027B800FFF7BFFF012204212068FFF7BAFF04E0FA
:1027C800012200210068FFF7B4FF2268136843F074
:1027D80001031360002010BD012204210068FFF7E7
:1027E800A8FFF2E790F83C30012B27D070B4012302
:1027F80080F83C30022380F83D3003685A689D68B1
:102808000F4E104CA34218BFB34203D122F47002FA
:102818004C68224322F070020C68224325F08004A1
:10282800896821435A6003689960012380F83D3024
:10283800002380F83C30184670BC7047022070476F
:10284800000001400004014090F83C30012B3CD0CE
:1028580030B4012380F83C30CB6823F440738A6895
:10286800134323F480634A68134323F400630A681C
:10287800134323F480530A69134323F400534A692A
:10288800134323F480438A6A134323F470238A6929
:1028980043EA024302680E4D0E4CA24218BFAA42F8
:1028A8000CD123F470034C6A43EA045323F0807379
:1028B800CC69234323F00073096A0B435364002354
:1028C80080F83C30184630BC70470220704700BF83
:1028D8000000014000040140704770477047000045
:1028E80010B5044683680269134342691343C269F9
:1028F800134301680868994A024013430B60226831
:10290800536823F44053E1680B435360A269236A78
:102918001A4321688B6823F4306313438B60236860
:102928008F4A934218D08F4A934228D08E4A9342B6
:102938003DD08E4A934250D08D4A934262D08D4A00
:10294800934277D08C4A934200F08C808B4A934212
:1029580000F0A0801023B6E0894BD3F8903003F044
:102968000303032B09D8DFE803F00204AD060123B3
:10297800A9E00423A7E00823A5E01023A3E0804BE7
:10298800D3F8903003F00C030C2B0ED8DFE803F0DB
:10299800070D0D0D090D0D0DA90D0D0D0B000023D3
:1029A80091E004238FE008238DE010238BE0744B23
:1029B800D3F8903003F03003102B0AD006D9202B1F
:1029C80000F09180302B06D108237CE01BB900234E
:1029D80079E0042377E0102375E0694BD3F8903051
:1029E80003F0C003402B09D005D9802B7DD0C02B24
:1029F80006D1082367E01BB9002364E0042362E0E2
:102A0800102360E05E4BD3F8903003F44073B3F5C5
:102A1800807F0BD007D9B3F5007F68D0B3F5407F2E
:102A280006D108234FE01BB900234CE004234AE0F9
:102A3800102348E0524BD3F8903003F44063B3F5C9
:102A4800806F0BD007D9B3F5006F52D0B3F5406F44
:102A580006D1082337E01BB9012334E0042332E010
:102A6800102330E0464BD3F8903003F44053B3F5CD
:102A7800805F0BD007D9B3F5005F3CD0B3F5405F5A
:102A880006D108231FE01BB900231CE004231AE029
:102A9800102318E03A4BD3F8903003F44043B3F5D1
:102AA800804F0BD007D9B3F5004F26D0B3F5404F70
:102AB80006D1082307E01BB9002304E0042302E041
:102AC800102300E00223E269B2F5004F17D0082B6B
:102AD80000F2B380DFE803F0768B95B19EB1B1B117
:102AE800A8000223EFE70223EDE70223EBE7022326
:102AF800E9E70223E7E70223E5E70223E3E7082BF8
:102B08005DD8DFE803F0051F3F5C485C5C5C530060
:102B1800FEF762FC6268530803EB4003B3FBF2F371
:102B28009BB20020A3F110014FF6EF72914200F220
:102B380087809AB222F00F02C3F34203134322683C
:102B4800D36050E0FEF758FC6268530803EB40037B
:102B5800B3FBF2F39BB20020E4E700BFF369FFEF99
:102B6800001001400044004000480040004C004074
:102B7800005000400014014000780040007C0040F4
:102B8800003802406268304B03EB5203B3FBF2F3A8
:102B98009BB20020C6E7FEF7FBFA6268530803EB16
:102BA8004003B3FBF2F39BB20020BBE76268530813
:102BB80003F58033B3FBF2F39BB20020B2E70120A8
:102BC8000023AFE7FEF708FC626800EB5203B3FB93
:102BD800F2F39BB20020A3F110014FF6EF7291427D
:102BE80030D82268D36000232366636610BDFEF7E1
:102BF80003FC626800EB5203B3FBF2F39BB20020C4
:102C0800E9E76268114B03EB5203B3FBF2F39BB2A3
:102C18000020E0E7FEF7BCFA626800EB5203B3FB62
:102C2800F2F39BB20020D6E76268530803F500432D
:102C3800B3FBF2F39BB20020CDE701200023CAE7E3
:102C48000120D0E70120CEE70048E8010024F40085
:102C5800436A13F0010F06D00268536823F4003367
:102C6800816A0B435360436A13F0020F06D002686F
:102C7800536823F48033C16A0B435360436A13F0EB
:102C8800040F06D00268536823F48023016B0B43BA
:102C98005360436A13F0080F06D00268536823F4A0
:102CA8000043416B0B435360436A13F0100F06D087
:102CB8000268936823F48053816B0B439360436AE3
:102CC80013F0200F06D00268936823F40053C16BF9
:102CD8000B439360436A13F0400F0AD002685368AD
:102CE80023F48013016C0B435360036CB3F5801F0E
:102CF8000BD0436A13F0800F06D00268536823F4A0
:102D08000023816C0B43536070470268536823F4B7
:102D1800C003416C0B435360EBE72DE9F0410546D6
:102D28000F4616469846069C2B68DB6937EA03036C
:102D38000CBF01230023B3421CD1B4F1FF3FF3D0F1
:102D4800FDF732FCA0EB0800A04201D8002CEBD123
:102D58002A68136823F4D07313602A68936823F0F1
:102D68000103936020236B67AB67002385F87030FD
:102D7800032000E00020BDE8F08110B582B00446D1
:102D88000023C367FDF710FC2268126812F0080FD1
:102D980007D120236367A367002084F8700002B07E
:102DA80010BD6FF07E430093034600224FF40011DC
:102DB8002046FFF7B2FF0028EBD00320EFE768B307
:102DC80010B50446436F03B324236367226813686E
:102DD80023F0010313602046FFF782FD012813D07A
:102DE800636ABBB92268536823F49043536022682E
:102DF800936823F02A0393602268136843F0010361
:102E080013602046FFF7B9FF10BD80F8703003F05B
:102E180077F8D9E72046FFF71BFFE3E70120704763
:102E28000B88012B00D0704770B52DED068B0D4631
:102E380004460388012B0DD02388022B6BD02388EE
:102E4800032B00F0BD802388042B00F02881BDEC03
:102E5800068B70BDBD4B00221A6001F071F8BC4EA4
:102E6800BC4B3360BC4B7360BC4BB360208802F032
:102E78003BFC96ED007ADFEDBA7A77EE279A37EECB
:102E8800679A96ED017A37EE27AA77EE678A96ED6C
:102E9800027A77EE27AA37EE678AB24BD3ED007A2B
:102EA800B0EE007A77EE877A9FEDAF7AC7FEC77AE1
:102EB8009FEDAE7AC7FE877AC3ED007A00F012FE66
:102EC800AB4BD3ED007AF4EEC97AF1EE10FA1FDDC0
:102ED800F4EEE97AF1EE10FA1AD5D3ED017AF4EEB0
:102EE800CA7AF1EE10FA13D5F4EEE87AF1EE10FA98
:102EF8000EDDD3ED027AF4EEC87AF1EE10FA07DDB2
:102F0800F4EEEA7AF1EE10FA02D50223238093E771
:102F18000123238090E701F013F88D4B8D4A1A6046
:102F28008D4A5A60934A9A60208802F0DDFB874BED
:102F38009B8813BB208802F0D7FB8A4BD3ED007A1D
:102F4800B0EE007A77EE877A9FED877AC7FEC77A68
:102F58009FED867AC7FE877AC3ED007A00F0C2FD3E
:102F68007A4B9B88012B1AD1784A13680133136076
:102F7800C72B08DD0323238061E703209FED7E0A2A
:102F880002F066F9D9E70120FDF714FB208802F06A
:102F9800ABFB03209FED780A02F05AF94FE70223B2
:102FA8002380052001F0CAFF00287FF448AF0320E2
:102FB8009FED710A02F04CF9644B01229A803EE7BA
:102FC80000F0BEFF624B634A1A60634A5A606B4A5C
:102FD8009A60644BD3ED007AB0EE007A77EE877A88
:102FE8009FED617AC7FEC77A9FED607AC7FE877A40
:102FF800C3ED007A00F076FD544BDB889BB35C4B45
:10300800D3ED007A9FED5E7AF4EEC77AF1EE10FA0E
:103018002DDD9FED5C7AF4EEC77AF1EE10FA26D535
:10302800D3ED017A9FED587AF4EEC77AF1EE10FAF3
:103038001DD59FED567AF4EEC77AF1EE10FA16DD3B
:10304800D3ED027A9FED527AF4EEC77AF1EE10FAD8
:103058000DDD9FED507AF4EEC77AF1EE10FA06D541
:1030680004232380EFE6208802F03EFBC7E7374BB6
:10307800DB88012B02D104232380E4E60323238089
:10308800022001F05BFF00287FF4DDAE03209FEDF6
:103098003A0A02F0DDF82D4B0122DA80D3E62C4BF8
:1030A8003D4A1A60354A5A609FED338A83ED028A99
:1030B8000120B0EE480A02F0CBF80220B0EE480A30
:1030C80002F0C6F8274BD3ED007AB0EE007A77EE1F
:1030D800877A9FED257AC7FEC77A9FED247AC7FEC7
:1030E800877AC3ED007A00F0FDFC1CE001209FED1B
:1030F8002B0A02F0ADF802209FED1F0A02F0A8F893
:10310800184BD3ED007AB0EE007A77EE877A9FED10
:10311800167AC7FEC77A9FED157AC7FE877AC3ED80
:10312800007A00F0DFFC002001F008FF0128DDD064
:103138009FED118A0120B0EE480A02F089F80220BA
:10314800B0EE480A02F084F844E000BFB80000205E
:103158009C050020273108BE5A643B3E6F12833A13
:10316800CDCCCC3C08000020008022440000FA436B
:1031780084050020F853233F000000000AD723BC31
:10318800508D17BEFCA9F1BD83C04A3E31082C3EC4
:10319800583934BCBC7413BC7F6A3CBD9A9999BE3B
:1031A8000AD7A33C02201FED020A02F051F8144B83
:1031B800D3ED007AB0EE007A77EE877A9FED117A38
:1031C800C7FEC77A9FED107AC7FE877AC3ED007AEB
:1031D80000F088FC012001F0B1FE0128E2D09FED4B
:1031E8000B8A0120B0EE480A02F032F80220B0EE55
:1031F800480A02F02DF80A2323802B8027E600BF17
:1032080008000020008022440000FA43000000006B
:1032180010B52DED028B04460388012B0AD02388B4
:10322800022B14D0BDEC028B10BD03209FED3F0A8A
:1032380002F00EF8022001F081FE0128F5D00223E9
:10324800238003209FED3A0A02F002F8E7E7394BA2
:10325800D3ED007AB0EE007A77EE877A9FED367A72
:10326800C7FEC77A9FED357AC7FE877AC3ED007A25
:1032780000F038FC002001F061FE01281DD101207A
:103288009FED2F0A01F0E4FF02209FED290A01F0CB
:10329800DFFF284BD3ED007AB0EE007A77EE877A1D
:1032A8009FED257AC7FEC77A9FED247AC7FE877AF5
:1032B800C3ED007A00F016FCDCE79FED1D8A0120C3
:1032C800B0EE480A01F0C4FF0220B0EE480A01F04F
:1032D800BFFF012001F032FE012818D102209FED26
:1032E800190A01F0B5FF134BD3ED007AB0EE007A5E
:1032F80077EE877A9FED107AC7FEC77A9FED0F7A2F
:10330800C7FE877AC3ED007A00F0ECFBE1E79FED9A
:10331800088A0120B0EE480A01F09AFF0220B0EEB8
:10332800480A01F095FF0B2323807BE7CDCCCC3EE8
:103338000000000008000020008022440000FA433A
:103348009A9999BE0AD7A33C10B504460388012B65
:1033580003D02388022B58D010BD00F0F1FD584B44
:10336800584A1A60584A5A60584A9A60208802F0A7
:10337800BBF9574BD3ED007A9FED567AF4EEC77A36
:10338800F1EE10FA29DD9FED547AF4EEC77AF1EEEA
:1033980010FA22D5D3ED017A9FED507AF4EEC77A70
:1033A800F1EE10FA19D59FED4E7AF4EEC77AF1EEE8
:1033B80010FA12DDD3ED027A9FED4A7AF4EEC77A5D
:1033C800F1EE10FA09DD9FED487AF4EEC77AF1EED6
:1033D80010FA02D502232380BBE7444B1B89012B3B
:1033E80005D102232380414B00221A81B1E7012332
:1033F8002380022001F0A2FD0028AAD1208802F033
:1034080073F93A4B01221A81A3E700F099FD2C4B7E
:103418002C4A1A602C4A5A60354A9A60208802F071
:1034280063F92B4BD3ED007A9FED327AF4EEC77A2D
:10343800F1EE10FA26DD9FED307AF4EEC77AF1EE60
:1034480010FA1FD5D3ED017A9FED2C7AF4EEC77AE6
:10345800F1EE10FA16D59FED2A7AF4EEC77AF1EE5E
:1034680010FA0FDDD3ED027A9FED267AF4EEC77AD3
:10347800F1EE10FA06DD9FED247AF4EEC77AF1EE4C
:1034880010FA14D4194B5B89012B13D00223238023
:10349800052001F053FD00287FF45EAF03209FED67
:1034A8001B0A01F0D5FE114B01225A8154E70C2367
:1034B800238051E70C2323800C4B00225A814BE7D1
:1034C8009C050020273108BE5A643B3E0AD7233C9E
:1034D80084050020508D17BEFCA9F1BD83C04A3E6B
:1034E80031082C3E0AD7A3BBCCCCCC3CB80000207A
:1034F800F853233F08AC1CBE8C6CE7BD3BDF4F3E46
:1035080079E9263E40351E3FB072283F0000000092
:1035180003880D2B00D0704710B5044600F010FD4D
:10352800254B264A1A60264A5A60264A9A602088FD
:1035380002F0DAF8244BD3ED007A9FED247AF4EE0A
:10354800C77AF1EE10FA26DD9FED217AF4EEC77AFC
:10355800F1EE10FA1FD5D3ED017A9FED1E7AF4EE45
:10356800C77AF1EE10FA16D59FED1B7AF4EEC77AFA
:10357800F1EE10FA0FDDD3ED027A9FED187AF4EE32
:10358800C77AF1EE10FA06DD9FED157AF4EEC77AE8
:10359800F1EE10FA02D40D23238010BD00232380FE
:1035A80000F0CEFC084A1168034B19605168596055
:1035B80092689A60F1E700BF9C0500204260653C74
:1035C800F4FDD43D6F12833A84050020BD74133C8A
:1035D800E4A59B3C653BDF3D83C0CA3D6E1283BBBF
:1035E800A69BC43B0388012B00D0704710B5044646
:1035F80000F0A6FC204B214A1A60214A5A60208814
:1036080002F072F81F4BD3ED007AB2EE047A77EE2F
:10361800877A9FED1D7AC7FEC77A9FED1C7AC7FE91
:10362800877AC3ED007A00F05DFA194BD3ED007A82
:103638009FED187AF4EEC77AF1EE10FA16DD9FEDD9
:10364800167AF4EEC77AF1EE10FA0FD5D3ED017AB7
:103658009FED127AF4EEC77AF1EE10FA06D59FEDD7
:10366800107AF4EEC77AF1EE10FA02DC0023238018
:1036780010BD0E232380FBE79C050020250601BE14
:103688002DB21D3E08000020008022440000FA43AD
:10369800840500204E6210BEF853E3BD560E2D3E41
:1036A80004560E3E0388012B00D0704710B504461F
:1036B80000F046FC9F4BD3ED007A9FED9F7AF4EE25
:1036C800C77AF1EE10FA16DD9FED9C7AF4EEC77A10
:1036D800F1EE10FA0FD5D3ED017A9FED997AF4EE59
:1036E800C77AF1EE10FA06D59FED967AF4EEC77A0E
:1036F800F1EE10FA64DC8F4BD3ED007A9FED927AED
:10370800F4EEC77AF1EE10FA16DD9FED907AF4EE3A
:10371800C77AF1EE10FA0FD5D3ED017A9FED8C7AC6
:10372800F4EEC77AF1EE10FA06D59FED8A7AF4EE38
:10373800C77AF1EE10FA6FDC7E4BD3ED007A9FED7D
:10374800867AF4EEC77AF1EE10FA16DD9FED837AE9
:10375800F4EEC77AF1EE10FA0FD5D3ED017A9FEDAA
:10376800807AF4EEC77AF1EE10FA06D59FED7D7AED
:10377800F4EEC77AF1EE10FA7DDC6E4BD3ED007AE9
:103788009FED797AF4EEC77AF1EE10FA17DD9FED26
:10379800777AF4EEC77AF1EE10FA10D5D3ED017A04
:1037A8009FED737AF4EEC77AF1EE10FA07D59FED24
:1037B800717AF4EEC77AF1EE10FA00F38B8010BD3F
:1037C8006D4B00221A605A60208801F08DFF594B1A
:1037D800D3ED007A9FED697AF4EEC77AF1EE10FA2C
:1037E80017DD9FED677AF4EEC77AF1EE10FA10D57F
:1037F800D3ED017AF4EEC77AF1EE10FA09D59FED10
:103808005F7AF4EEC77AF1EE10FA02DD0F23238017
:1038180071E7002323806EE7574B5A4A1A605A4AC9
:103828005A60208801F060FF424BD3ED007A9FED8B
:10383800577AF4EEC77AF1EE10FA19DD9FED547A53
:10384800F4EEC77AF1EE10FA12D5D3ED017A9FEDB6
:10385800517AF4EEC77AF1EE10FA09D59FED4E7A57
:10386800F4EEC77AF1EE10FA02DD0F23238063E746
:103878000023238060E7404B484A1A60484A5A6050
:10388800208801F031FF2B4BD3ED007A9FED457A6C
:10389800F4EEC77AF1EE10FA19DD9FED437AF4EEF3
:1038A800C77AF1EE10FA12D5D3ED017A9FED3F7A7F
:1038B800F4EEC77AF1EE10FA09D59FED3D7AF4EEF1
:1038C800C77AF1EE10FA02DD0F23238055E70023B3
:1038D800238052E7284B374A1A60374A5A602088B3
:1038E80001F002FF134BD3ED007A9FED347AF4EE2A
:1038F800C77AF1EE10FA16DD9FED317AF4EEC77A49
:10390800F1EE10FA0FD5D3ED017A9FED2E7AF4EE91
:10391800C77AF1EE10FA06D59FED2B7AF4EEC77A46
:10392800F1EE10FA02DC0023238048E70F232380FE
:1039380045E700BF840500201A2FDDBC022B073D98
:103948002DB2DD3E002B073D3333B3BE3333B33ED8
:103958008FC2F53C8FC2F5BCF853E3BEA69BC4BE2C
:103968000681953E701203BC85EB31BF00D7A33B9F
:10397800AAF1D23E96438B3E9C0500208FC275BCAF
:103988008FC2753CCFF7D3BE7368113EE3A5DBBE8B
:10399800BB49CCBE9CC4203E4A0C023ED7A3B0BE55
:1039A800A01AAF3EEB51B8BEC3F5A8BEB4C8B63E28
:1039B8008C6CA73EA69B443B8D976E3EA69B44BC51
:1039C800BC74933CB6F37D3E643B5F3E0000000050
:1039D80038B52DED028B04460D46F0EE000A90ED49
:1039E800000A02F099FBB0EE408AF0EE000A94ED6E
:1039F800010A02F091FB38EE000A02F0A1FDB0EED8
:103A0800408AD4ED000A94ED010A02F095FDD4ED48
:103A1800007AF5EEC07AF1EE10FA08D485ED008A46
:103A280085ED010AA368AB60BDEC028B38BDD4ED0F
:103A3800017AF5EEC07AF1EE10FAEFD5B7EEC00ACA
:103A48009FED037B30EE070BB7EEC00BE6E700BF38
:103A5800182D4454FB21194038B52DED028B04462E
:103A68000D4690ED008A90ED010A02F00DFB28EE5C
:103A7800008A85ED008AD4ED008A94ED010A02F0EF
:103A8800BDFC28EE800A85ED010AA368AB60B5EE9F
:103A9800C08AF1EE10FA04DDB5EEC00AF1EE10FAB4
:103AA80002D4BDEC028B38BD00236B60F9E700003F
:103AB80010B50B4C00212046FEF74CFE23684FF44E
:103AC8007A725A6340F6B830FCF774FD23684FF4F5
:103AD800FA725A6340F6B830FCF76CFD10BD00BFAF
:103AE80024030020044B1B68044AD2ED007AFCEE44
:103AF800E77AC3ED0D7A7047240300200800002000
:103B080000280CDD07EE900AB8EEE77AC1F1FF0154
:103B180007EE901AF8EEE77A87EE270A704707EE65
:103B2800900AB8EEE77A07EE901AF8EEE77A87EE91
:103B3800270A704782B00023019302E0019B0133FA
:103B48000193019B1D2BF9D902B0704708B50022DB
:103B580080210248FDF7E5F808BD00BF000C0240CF
:103B680008B5012280210248FDF7DBF808BD00BF37
:103B7800000C0240000000002DE9F0472DED028BFB
:103B880088B081460E4615469846129F0024CDF807
:103B98001640CDF81A4001238DF8143042238DF8D1
:103BA800153002940394ADF81040BF488023036297
:103BB800FDF7FBFFFFF7CAFFFFF7BCFF0EE04FF66C
:103BC800FF730093012302AA224405A92144B648A1
:103BD800FEF748F8FFF7AEFF0134E4B2022CEED945
:103BE8009DF8093003F00F03032B03D04FF0050AAB
:103BF800032411E04FF0090AFAE74FF6FF73009328
:103C0800012302AA224405A92144A748FEF72AF85D
:103C1800FFF790FF013464B2A245EEDCFFF7A0FF86
:103C28009DF80B30DB43DAB28DF80B209DF80C3091
:103C3800DB43DBB28DF80C3003EB0223A9F800302C
:103C48009DF8093003F00F03032B0FD000233360D6
:103C580073602B606B60C8F80030C8F804303B60B4
:103C68007B6008B0BDEC028BBDE8F0879DF80F00C3
:103C780080218038FFF744FF86ED000A9DF8100088
:103C880080218038FFF73CFFB1EE400A86ED010A3B
:103C98009DF80D0080218038FFF732FF85ED000A7E
:103CA8009DF80E0080218038FFF72AFFB1EE400A08
:103CB80085ED010AF0EE000A96ED000A02F02CFAF2
:103CC800B0EE408AF0EE000A96ED010A02F024FAFE
:103CD80038EE000A02F034FCF7EE007A80FE670A3C
:103CE80088ED000ADFED717AB4EEE70AF1EE10FA1A
:103CF80002D50023C8F80030D8ED007AF5EE407AF6
:103D0800F1EE10FA2DD10023C8F80430F0EE000AC5
:103D180095ED000A02F000FAB0EE408AF0EE000AD3
:103D280095ED010A02F0F8F938EE000A02F008FCF5
:103D3800F7EE007A80FE670A87ED000ADFED5B7A0E
:103D4800B4EEE70AF1EE10FA01D500233B60D7ED97
:103D5800007AF5EE407AF1EE10FA51D100237B603B
:103D68007FE796ED010A80EE270A02F091FBDFED6E
:103D7800507A60EE277AB7EEE77A9FED495B87EED7
:103D8800056BB7EEC66B88ED016AD6ED007AF5EEE5
:103D9800C07AF1EE10FA06DD96ED017AB5EEC07A3A
:103DA800F1EE10FAB2DCF5EEC07AF1EE10FA0BD4AF
:103DB800F5EEC07AF1EE10FA14D4DFED3E7A36EE65
:103DC800276A88ED016AA1E796ED017AB5EEC07A17
:103DD800F1EE10FAECDDDFED367A37EEC66A88EDE3
:103DE800016A93E7D6ED017AF5EEC07AF1EE10FAA2
:103DF800E3D5DFED2F7A37EEC66A88ED016A85E7ED
:103E080095ED010A80EE270A02F042FBDFED287AE1
:103E180060EE277AB7EEE77A9FED215B87EE056BB8
:103E2800B7EEC66B87ED016AD5ED007AF5EEC07A7C
:103E3800F1EE10FA07DD95ED017AB5EEC07AF1EEF4
:103E480010FA3FF70EAFF5EEC07AF1EE10FA0BD488
:103E5800F5EEC07AF1EE10FA14D4DFED167A36EEEC
:103E6800276A87ED016AFCE695ED017AB5EEC07A1E
:103E7800F1EE10FAECDDDFED0E7A37EEC66A87ED6B
:103E8800016AEEE6D5ED017AF5EEC07AF1EE10FAA8
:103E9800E3D5DFED077A37EEC66A87ED016AE0E61B
:103EA800182D4454FB210940C0020020CDCCCC3E43
:103EB800000034430000B44388B08DED060A4AF28E
:103EC800A5524BF6BE63984218BF904216D0012007
:103ED8009DED067AB7EEC77A9FED0B6B27EE067B52
:103EE800B4EE467BF1EE10FA0AD0BBEE0D6BB4EEE1
:103EF800467BF1EE10FA04D1002002E00020E7E74B
:103F0800002008B0704700BF0000000000005940C2
:103F180010B4094C636AA3F500430B804FF080434B
:103F28005B6A0380054B5B6A13804FF4004363624E
:103F38005DF8044B704700BF0004004000080040D3
:103F480000B583B00DF1020201A90DF10600FFF7DB
:103F5800DFFFBDF9063007EE103AB8EEC77ADFED9D
:103F6800327A27EE277A37EE077AB7EEC77A9FEDCF
:103F7800285B27EE057B9FED284B27EE047B9FED02
:103F8800286B27EE067BB7EEC77BDFED286AC7EE06
:103F9800267A2748C0ED007ABDF9043006EE103ABB
:103FA800B8EEC66ADFED237A26EE276AB7EEC66A50
:103FB80026EE056B26EE046BB7EEC66BDFED1E7AB8
:103FC80086EE277AD0ED017A77EE877AC0ED017A0E
:103FD800BDF9023007EE103AB8EEC77ADFED177A6E
:103FE80027EE277AB7EEC77A27EE057B37EE077BF1
:103FF800B7EEC77BDFED126AC7EE267AC0ED027A0C
:104008001049FFF729FD03B05DF804FBAFF300800A
:10401800182D4454FB2109400000000000407F4057
:1040280000000000004080404260E53C0C93764D63
:10403800900500200000BC420049094D8FC2F53CA4
:10404800000048438405002008B53C210B48FEF7D2
:10405800A7FB3C210A48FEF7A3FB3C210948FEF7D1
:104068009FFB094B4FF400425A6200234FF08042F5
:10407800536202F50062536208BD00BFE8040020E5
:104088008002002074010020000400402DE9F04F58
:104098008FB0002409940A940B940C940D947D4BD2
:1040A8001A6B42F010021A631A6B02F010020192A6
:1040B800019A1A6B42F004021A631A6B02F00402A6
:1040C8000292029A1A6B42F020021A631A6B02F0EB
:1040D80020020392039A1A6B42F080021A631A6B49
:1040E80002F080020492049A1A6B42F001021A63E9
:1040F8001A6B02F001020592059A1A6B42F002024D
:104108001A631A6B02F002020692069A1A6B42F0C0
:1041180008021A631A6B02F008020792079A1A6BD0
:1041280042F040021A631B6B03F040030893089B9C
:10413800DFF874B122464CF218215846FCF7F1FD1D
:10414800554E22464FF4CA513046FCF7EAFD224646
:1041580045F6C2315148FCF7E4FDDFF8509122469C
:1041680049F203414846FCF7DCFDDFF8448122466A
:104178004CF284014046FCF7D4FD494F22464FF4E7
:104188009B513846FCF7CDFD142309930A94012569
:104198000B9509A94846FCF7CDFC4FF40053099349
:1041A800404B0A930B94DFF80CA109A95046FCF781
:1041B800C1FC4CF2182309930A950B940C9409A995
:1041C8005846FCF7B7FC0D2309930A940B9509A9E7
:1041D8005046FCF7AFFC102309930A940B9509A9E4
:1041E8003046FCF7A7FC4FF4CA5309930A950B9481
:1041F8000C9409A93046FCF79DFC45F6C233099397
:104208000A950B940C9409A92448FCF793FC49F2ED
:10421800034309930A950B940C9409A94846FCF7A3
:1042280089FC4CF2840309930A950B940C9409A910
:104238004046FCF77FFC0C2309930A940B9509A9C7
:104248003846FCF777FC902309930A940B9409A944
:104258003846FCF76FFC4FF49B5309930A950B946F
:104268000C9409A93846FCF765FC4FF40043099300
:104278000A940B9409A93046FCF75CFC08230993BF
:104288000A940B9509A94046FCF754FC0FB0BDE809
:10429800F08F00BF003802400000024000040240D6
:1042A80000180240000011100014024000100240E3
:1042B800000C02400008024000B583B01048114BC2
:1042C800036001234360002303828DF800308022BD
:1042D8008DF80120E1228DF802208DF803308DF849
:1042E80004308DF80530C0F814D08361C3614FF4F1
:1042F80000030362FCF7F4FA03B05DF804FB00BFA7
:10430800280500200080024008B50F480F4B0360C5
:104318004FF482734360002383604FF4E062C2600D
:1043280002220261012242614FF400728261382246
:10433800C26180220262436283620722C26203630F
:104348004363FDF732FC08BDC0020020003C00407A
:1043580030B597B000241394149415940C940D94CC
:104368000E940F941094119412942C22214601A8B3
:1043780003F04CFA264D274B2B605F236B60AC6033
:1043880040F2E733EB602C616C61AC612846FEF7C4
:104398005BF82846FEF73FF813941494159413A974
:1043A8002846FEF71FFA60230C930D940E940F9481
:1043B80010941194129422460CA92846FEF71FF96E
:1043C80004220CA92846FEF71AF908220CA9284647
:1043D800FEF715F90C940C220CA92846FEF7D4F820
:1043E800019402940394049405944FF400530693A3
:1043F800079408944FF0007309930A940B9401A949
:104408002846FEF721FA284601F0C6FC17B030BD51
:10441800680400200000014030B597B000241394D0
:10442800149415940C940D940E940F941094119464
:1044380012942C22214601A803F0E8F9244D254BBB
:104448002B605F236B60AC6040F2E733EB602C615C
:104458006C61AC612846FDF7F7FF1394149415942A
:1044680013A92846FEF7BEF960230C930D940E9409
:104478000F9410941194129422460CA92846FEF722
:10448800BEF804220CA92846FEF7B9F808220CA9A0
:104498002846FEF7B4F80C220CA92846FEF7AFF818
:1044A800019402940394049405944FF400530693E2
:1044B800079408944FF0007309930A940B9401A988
:1044C8002846FEF7C1F9284601F066FC17B030BD52
:1044D800340100200004014030B589B00024019463
:1044E8000294039404940594069407940E4D0F4B7C
:1044F8002B60BF236B60AC6042F20F73EB602C61E2
:10450800AC612846FDF7A0FF602301930294039451
:104518000594224601A92846FEF771F8284601F0BD
:104528003BFC09B030BD00BFA8040020004001409A
:1045380030B58DB02022002104A803F067F90024CB
:104548000094019402940D4D4FF080432B606C60F1
:10455800AC604FF6FF73EB602C61AC6101230393F1
:104568000593099303A92846FDF788FF0094029450
:1045780069462846FEF736F90DB030BDE80400203C
:1045880030B58DB02022002104A803F03FF90024A3
:104598000094019402940D4D0D4B2B606C60AC603F
:1045A8004FF6FF73EB602C61AC6101230393059315
:1045B800099303A92846FDF761FF00940294694610
:1045C8002846FEF70FF90DB030BD00BF800200206D
:1045D8000004004030B58DB02022002104A803F06B
:1045E80015F900240094019402940D4D0D4B2B6095
:1045F8006C60AC604FF6FF73EB602C61AC6101231B
:1046080003930593099303A92846FDF737FF009400
:10461800029469462846FEF7E5F80DB030BD00BFA4
:10462800740100200008004030B585B000250195D0
:10463800029503950A4C0B4B236030236360A560F9
:1046480042F20F73E360A5612046FDF7CBFE0195AA
:10465800039501A92046FEF7C5F805B030BD00BF97
:10466800280400200010004030B589B000240194CF
:104678000294039404940594069407940F4D104BE8
:104688002B60BF236B60AC6042F20F73EB602C6150
:10469800AC612846FDF7A6FE2846FDF7D5FE602347
:1046A8000193029403940594224601A92846FDF734
:1046B800A6FF284601F070FB09B030BD3402002087
:1046C8000044014030B589B0002401940294039459
:1046D80004940594069407940F4D104B2B60BF2348
:1046E8006B60AC6042F20F73EB602C61AC612846E2
:1046F800FDF778FE2846FDF7A7FE60230193029494
:1047080003940594224601A92846FDF778FF284618
:1047180001F042FB09B030BDE4030020004801402D
:1047280030B589B00024019402940394049405944C
:10473800069407940F4D104B2B60BF236B60AC6041
:1047480042F20F73EB602C61AC612846FDF74AFE1C
:104758002846FDF779FE602301930294039405949B
:10476800224601A92846FDF74AFF284601F014FB16
:1047780009B030BD24030020001C004008B50948DA
:10478800094B03604FF4E133436000238360C36047
:1047980003610C2242618361C36103624362FEF7D5
:1047A8000EFB08BD640300200010014008B509484D
:1047B800094B03604FF4E133436000238360C36017
:1047C80003610C2242618361C36103624362FEF7A5
:1047D800F6FA08BDB40100200048004000000000BF
:1047E8000268BF4B9A4200D0704710B58AB0BD4CE2
:1047F80008AB009306AB04AA02A92046FFF7BCF950
:104808009DED083ADDED093A9DED062ADDED072A12
:104818009DED041ADDED051A9DED020ADDED030A92
:104828002088FFF749FB80B26080012803D0FFF79A
:1048380087FB0AB010BD2388202B49D0102B00F02D
:10484800A680B3F5004F00F0A680042B00F0A780E7
:10485800012B00F0C280082B00F0D580802B00F0DF
:10486800E580402B00F01781B3F5805F00F066818A
:10487800B3F5804F00F07E81B3F5005F00F09681BC
:10488800B3F5006F00F0A881B3F5807F00F0AD812B
:104898000F2B00F0B381934BD3ED067AF5EEC07A77
:1048A800F1EE10FA40F3B2819FED8F7A77EEC77A76
:1048B800C3ED067A8B4C94ED060A0420B1EE400A4B
:1048C80000F0C6FC052094ED060A00F0C1FC01E0EA
:1048D8000122A280834BDB68012B00F0A88153B929
:1048E800824B9B893BB97F4B9B8B23B97D4BDB8BE1
:1048F800002B00F0BF817B4B1A885A817B4C0A2021
:1049080094ED000A00F0CAFF0B2094ED010A00F0B4
:10491800C5FF0C2094ED020A00F0C0FFFFF710FB62
:10492800A389002B83D1FFF70BFB714A92ED007A24
:10493800B7EEC77A9DED045AB7EEC55A9FED666B80
:1049480005EE067BB7EEC77B6A4B83ED007A92EDE6
:10495800017AB7EEC77A9DED055AB7EEC55A05EE4E
:10496800067BB7EEC77B83ED017A92ED027AB7EE4C
:10497800C77A9DED035AB7EEC55A05EE067BB7EE2A
:10498800C77B83ED027AA08900F0AEFE4FE7554B56
:104998000122DA809EE7534B01221A819AE7534B92
:1049A800D3ED007AF6EE006A77EEE67A9FED527A5A
:1049B800C7FE877AC3ED007AD3ED017A77EEE67AFF
:1049C800C7FE877AC3ED017AD3ED027A77EEE67AED
:1049D800C7FE877AC3ED027A7CE7444BD3ED017AB0
:1049E800F6EE006A77EEA67A9FED447AC7FEC77A9C
:1049F800C3ED017AD3ED027A77EEA67AC7FEC77ABD
:104A0800C3ED027A66E7374A528993423FF462AFB0
:104A1800344BDB681BB9334B0122DA605AE7012BB0
:104A28007FF458AF2F4B0022DA6053E72D4A5289A2
:104A380093423FF44FAF2B4B1B69BBB1012B7FF463
:104A480049AF002240212E48FCF76BF92D4C00227B
:104A580002212046FCF765F900224FF480412046E8
:104A6800FCF75FF91F4B00221A6133E7012240214E
:104A78002348FCF756F9234C012202212046FCF773
:104A880050F901224FF480412046FCF74AF9154BB2
:104A980001221A611EE7134A528993423FF41AAF62
:104AA800104B5B69A3B3012B7FF414AF00220221E2
:104AB8001548FCF736F9154C00224FF400712046D2
:104AC800FCF72FF900224FF480512046FCF729F912
:104AD800044B00225A61FDE6FA7E6ABC7493583F83
:104AE80000100040C80000206F12033A0C0000209C
:104AF800840500209C0500200000B4C20000B442D8
:104B08000000024000040240001002400018024069
:104B1800012202216148FCF704F9614C01224FF49B
:104B280000712046FCF7FDF801224FF48051204621
:104B3800FCF7F7F85B4B01225A61CBE6594C94ED30
:104B4800060ADFED597A30EE270ADFED587A80FE43
:104B5800670ADFED577A80FE270A84ED060A0420EB
:104B6800B1EE400A00F074FB052094ED060A00F04F
:104B78006FFBAFE64B4C94ED060ADFED4B7A30EE57
:104B8800670ADFED4A7A80FE670ADFED497A80FE20
:104B9800270A84ED060A0420B1EE400A00F058FB0B
:104BA800052094ED060A00F053FB93E6414C9FED77
:104BB800420A84ED000A414B6360A3600A2000F0BA
:104BC8006DFE0B2094ED010A00F068FE0C2094EDB8
:104BD800020A00F063FE7DE6324A528993423FF4AE
:104BE80079AE304B01229A8374E62E4A5289934259
:104BF8003FF470AE2B4B0122DA836BE600232D4A7B
:104C08009381284A9383D383938063E6F5EEC07A31
:104C1800F1EE10FA03D4234B00229A614AE69FED85
:104C2800227A77EE877A1F4BC3ED067A42E6214A4D
:104C38009289002A7FF453AE1A4A928B002A7FF495
:104C48004EAE184AD28B002A7FF449AE1C4BD3EDE6
:104C5800007AB7EE087A77EE877A9FED1A7AC7FE60
:104C6800C77A9FED197AC7FE877AC3ED007AFEF7F7
:104C780039FF40E6124BD3ED007AB7EE087A77EEAB
:104C8800C77A9FED107AC7FEC77A9FED0F7AC7FEE5
:104C9800877AC3ED007AFEF725FF2CE60010024064
:104CA80000180240C80000206F12033ACDCC4C3DDA
:104CB800CDCC4CBD0C0000200000B4420000A04246
:104CC80008000020008022440000FA4330B5B9B043
:104CD800342200212BA802F099FD00242694279461
:104CE800289429942A949022214602A802F08EFD45
:104CF800FCF71EF8204B1A6C42F080521A641B6CA9
:104D080003F080530093009B1C4A136823F440432C
:104D180043F480431360136803F440430193019BF9
:104D280001232B934FF4A0232C93022531954FF4A4
:104D3800800332930423339360223492359536935B
:104D48002BA8FCF73BF8FBF7FBFF0F2326932795CF
:104D580028944FF4805329932A94032126A8FCF71A
:104D680083FA4FF4A07302931394159402A8FCF7E6
:104D780053FB39B030BD00BF00380240007000401E
:104D880038B52DED028BFBF7F7FBFFF79FFFFFF719
:104D98007DF9FFF791FAFFF7B7FAFFF7D9FAFFF7AE
:104DA800C7FBFFF7EDFBFFF715FCFFF73DFCFFF72F
:104DB80033FBFFF791FBFFF757FCFFF783FCFFF787
:104DC800AFFCFFF7DBFCFFF7F1FC00F0DDFC00F0C7
:104DD800F7FCFFF739F9FEF76BFE00F0C7FD4FF45B
:104DE8009670FBF7E7FB4A48FDF78EF95FE0FFF79F
:104DF800A7F8484A1168484B196051685960926889
:104E08009A6058E045494648FEF70AF857E0454B8E
:104E1800D3ED007AB0EE047A77EEC77A9FED427A46
:104E2800C7FEC77A9FED417AC7FE877AC3ED007A3D
:104E3800FEF758FE0120FBF7BDFB01243C4B9C818B
:104E4800204600F051FC9FED3B8A0220B0EE480A54
:104E580000F0FEF92046B0EE480A00F0F9F92544C2
:104E6800B5F57A7FD3DB324B00229A81324B0D2283
:104E78009A8028E00025F3E72848FEF749FB26E05A
:104E88002D4C04F11C00FEF7C3F9A38B0B2B22D188
:104E98000022A283A2801EE00022E283A280264B89
:104EA800DB88012B24D0244B1B89012B27D0204BD6
:104EB8009B89002B9BD01E4B9B89002BA2D11E4B9C
:104EC8009B880A2BD6D01C4B9B880D2BD4D01A4B11
:104ED8009B8B002BD4D1184BDB8B002BDFD0164CCF
:104EE80004F11E00FEF730FAE38B0C2BD7D1D3E781
:104EF800114CA01DFEF776FB0023E380D3E70E4C90
:104F080004F10800FEF7CEFB00232381CFE700BFA2
:104F180028040020840500209C050020CC000020E7
:104F28001800002008000020008022440000FA43F6
:104F38000C00002000000000C800002010B5044646
:104F4800082860D8DFE800F0414B55050F19232DDC
:104F5800370001212D48FBF7DDFE012801D0012093
:104F68004EE000204CE008212948FBF7D3FE012839
:104F780001D0012044E0002042E004212548FBF74D
:104F8800C9FE012801D001203AE0002038E00821BC
:104F98002048FBF7BFFE012801D0012030E00020A7
:104FA8002EE004211C48FBF7B5FE012801D00120A2
:104FB80026E0002024E010211748FBF7ABFE01286B
:104FC80001D001201CE000201AE010211348FBF753
:104FD800A1FE012801D0012012E0204610E008219E
:104FE8000A48FBF797FE012801D0204608E0002078
:104FF80006E004210548FBF78DFE012801D00120B9
:1050080010BD0020FCE70020FAE700BF00080240BE
:10501800000C02400018024000100240000002404C
:1050280010B5012823D0022855D0032800F0848029
:10503800042800F0B28005283ED1B5EEC00AF1EE92
:1050480010FA00F3DE80B5EEC00AF1EE10FA00F1B6
:10505800E6807A4C01224FF480512046FBF761FE2E
:1050680001224FF400612046FBF75BFE24E0B5EE19
:10507800C00AF1EE10FA12DCB5EEC00AF1EE10FA31
:105088001BD46F4C01224FF480412046FBF749FEA8
:1050980001224FF400412046FBF743FE0CE0684C28
:1050A80000224FF480412046FBF73BFE01224FF4DB
:1050B80000412046FBF735FE10BD614C01224FF43C
:1050C80080412046FBF72DFE00224FF40041204688
:1050D800FBF727FEF0E7B5EEC00AF1EE10FA11DC97
:1050E800B5EEC00AF1EE10FA19D4564C01224FF46D
:1050F80000412046FBF715FE012208212046FBF758
:1051080010FED9E74F4C00224FF400412046FBF730
:1051180008FE012208212046FBF703FECCE7494C94
:1051280001224FF400412046FBF7FBFD0022082135
:105138002046FBF7F6FDBFE7B5EEC00AF1EE10FA20
:1051480011DCB5EEC00AF1EE10FA19D401224FF4C1
:1051580000413D48FBF7E5FD01224FF48041394805
:10516800FBF7DFFDA8E700224FF400413648FBF7C4
:10517800D8FD01224FF480413248FBF7D2FD9BE76E
:1051880001224FF400413048FBF7CBFD00224FF4D9
:1051980080412C48FBF7C5FD8EE7B5EEC00AF1EE5D
:1051A80010FA12DCB5EEC00AF1EE10FA1BD4274C47
:1051B80001224FF480512046FBF7B3FD01224FF442
:1051C80000612046FBF7ADFD76E7204C00224FF446
:1051D80080512046FBF7A5FD01224FF400612046CF
:1051E800FBF79FFD68E7194C01224FF480512046D8
:1051F800FBF797FD00224FF400612046FBF791FD75
:105208005AE70E4C00224FF480512046FBF789FDE7
:1052180001224FF400612046FBF783FD4CE7074C61
:1052280001224FF480512046FBF77BFD00224FF40A
:1052380000612046FBF775FD3EE700BF0004024011
:10524800000C02400014024000100240000002401E
:1052580010B52DED028BB0EE408AB5EE400AF1EEA6
:1052680010FA0BD0B7EE000A88FE400AB7EEC00A63
:10527800BFEE007B80FE070BB7EEC08B01280CD079
:10528800022834D003285BD0042800F08280052847
:1052980000F0A980BDEC028B10BDB0EE480AFFF704
:1052A800BFFEB5EE408AF1EE10FA0ED0B0EEC88A15
:1052B8009FED620A28EE008ABCEEC88A18EE103A02
:1052C8009BB25F4A12685363E4E75D4B1B68002298
:1052D8005A635C4C01224FF480412046FBF721FDC4
:1052E80001224FF400412046FBF71BFDD2E7B0EE48
:1052F800480AFFF795FEB5EE408AF1EE10FA0ED097
:10530800B0EEC88A9FED4D0A28EE008ABCEEC88A26
:1053180018EE103A9BB24A4A12689363BAE7484BB0
:105328001B6800229A63484C01224FF40041204632
:10533800FBF7F7FC012208212046FBF7F2FCA9E75E
:10534800B0EE480AFFF76CFEB5EE408AF1EE10FAAF
:105358000ED0B0EEC88A9FED390A28EE008ABCEE5E
:10536800C88A18EE103A9BB2354A1268D36391E79F
:10537800334B1B680022DA6301224FF400413348A3
:10538800FBF7CFFC01224FF480412F48FBF7C9FC03
:1053980080E7B0EE480AFFF743FEB5EE408AF1EE2B
:1053A80010FA0ED0B0EEC88A9FED240A28EE008AC3
:1053B800BCEEC88A18EE103A9BB2254A12685363AD
:1053C80068E7234B1B6800225A63224C01224FF4E2
:1053D80080512046FBF7A5FC01224FF400612046CE
:1053E800FBF79FFC56E7B0EE480AFFF719FEB5EE4B
:1053F800408AF1EE10FA0ED0F0EEC87A9FED0F8ACF
:1054080067EE887AFCEEE77A17EE903A9BB2104A7C
:105418001268D3633EE70E4B1B680022DA630E4C1A
:1054280001224FF480512046FBF77BFC01224FF408
:1054380000612046FBF775FC2CE700BF00401C46C6
:1054480068040020000C02400014024000100240D2
:1054580034010020000002400004024008B52DED90
:10546800048B494BD3ED007A484A92ED009A37EE07
:10547800C99A9FED477A29EE079A93ED017AD2ED02
:10548800016A37EE667AF8EE046A27EE267A67EE46
:10549800877AD2ED028A93ED027A78EEC78A9FED79
:1054A8003D7A68EE878A3C4B93ED007AD3ED016A2A
:1054B80037EE667AF6EE006A27EE267A9FED376AAF
:1054C800C7EE066A78EEA68A9FED357AB4EEC79ADB
:1054D800F1EE10FA08DD9FED337AB4EEC79AF1EEDB
:1054E80010FA01D59FED309A9FED2D7AF4EEC77A28
:1054F800F1EE10FA08DD9FED2B7AF4EEC77AF1EEA3
:1055080010FA01D5DFED287A9FED257AF4EEC78AE7
:10551800F1EE10FA08DD9FED237AF4EEC78AF1EE7A
:1055280010FA01D5DFED208A9FED208AC7FEC87AE0
:105538009FED1F8A87FE888AB5EEC08AF1EE10FAC1
:105548000FDD0120FFF7FAFC28B902209FED160AAB
:10555800FFF77EFE14E00220B0EE480AFFF778FE5F
:105568000EE00220B0EE480AFFF772FE0120B0EE0E
:10557800490AFFF76DFE0320B0EE680AFFF768FEE0
:10558800BDEC048B08BD00BF90050020700500200D
:105598000000A4C100000EC2000100200AD7233D6C
:1055A800EC51B8BDEC51B83D00000000CDCCCC3E6C
:1055B800CDCCCCBE08B52DED048B404B93ED008AC5
:1055C8003F4A92ED009A38EE499ADFED3E7A29EE8D
:1055D800279AD3ED017A92ED017A77EEC77A9FED9B
:1055E8003A7A67EE877A28EE278AD2ED028AD3EDD7
:1055F800027A78EEE78ADFED357A68EEA78ADFED82
:10560800347A88FE678ADFED337A88FE278ADFEDF1
:10561800327AB4EEE79AF1EE10FA08DDDFED2F7A70
:10562800B4EEE79AF1EE10FA01D59FED2D9ADFED71
:105638002A7AB4EEE78AF1EE10FA08DDDFED277A70
:10564800B4EEE78AF1EE10FA01D59FED258ADFED79
:10565800227AF4EEE78AF1EE10FA08DDDFED1F7A20
:10566800F4EEE78AF1EE10FA01D5DFED1D8AB5EE0A
:10567800C08AF1EE10FA0FDD0120FFF75FFC28B9B0
:1056880002209FED170AFFF7E3FD14E00220B0EEB9
:10569800480AFFF7DDFD0EE00220B0EE480AFFF7EA
:1056A800D7FD0120B0EE490AFFF7D2FD0320B0EE86
:1056B800680AFFF7CDFDBDEC048B08BD90050020FE
:1056C800700500200000B5C2000072C200008242CE
:1056D8009A99193F9A9919BFEC51B8BDEC51B83D48
:1056E800000000000000000030B587B00546224ADF
:1056F8006B4607CA83E8070003AC21461846FEF745
:1057080067F91E4B94E8070083E80700D3ED017A98
:10571800F5EEC07AF1EE10FA1CDB9FED197AF4EE83
:10572800C77AF1EE10FA15D8164BD3ED016AB7EE29
:10573800E67A9FED0D5BB4EEC57BF1EE10FA09D564
:105748009FED0B5BB4EEC57BF1EE10FA02DD0B4B5F
:10575800C3ED016A1DB1FFF781FE07B030BDFFF749
:1057680029FFFAE7AFF30080182D640243030940CC
:10577800182D24A6B34009409C0500207005002080
:105788000000C8429005002010B50B4C00212046AF
:10579800FCF7E0FF04212046FCF7DCFF0821204647
:1057A800FCF7D8FF054C00212046FCF7D3FF082161
:1057B8002046FCF7CFFF10BD68040020340100200C
:1057C80008B52DED028B04E003209FED250AFFF7B5
:1057D8003FFD0220FFF7B2FB0128F5D003209FED23
:1057E800210AFFF735FD04E001209FED1F0AFFF7AE
:1057F8002FFD0020FFF7A2FB0128F5D001204FF074
:10580800804358629FED178AB0EE480AFFF720FDE3
:105818000220B0EE480AFFF71BFD0320B0EE480A4D
:10582800FFF716FD114B83ED008A114A5A6083ED8C
:10583800028A104B83ED008A5A6083ED028A0E4B70
:1058480083ED008A83ED018A83ED028A0B4B83ED99
:10585800008A83ED018A83ED028ABDEC028B08BDC4
:10586800CDCCCC3D00000000CDCCCCBD90050020B7
:10587800DB0F494070050020840500209C050020AE
:1058880010B4401A019CE41A04FB00F0521A90FB71
:10589800F2F018445DF8044B7047000010B52DED88
:1058A800028B82B0B0EE408A04460A2807D00B2C3F
:1058B8001ED00C2C36D002B0BDEC028B10BDDFED33
:1058C800267A80FE678ADFED257A88FE278A4FF4DC
:1058D800AF630093C8235A226FF05901FDEEC87ACE
:1058E80017EE900AFFF7CCFF1D4B1B685863DEE7E5
:1058F800DFED197A88FE678ADFED187A88FE278A35
:105908004FF4C86300934FF4A5735A226FF05901FE
:10591800FDEEC87A17EE900AFFF7B2FF114B1B682D
:105928005863C6E7DFED0C7A88FE678ADFED0B7AED
:1059380088FE278A4FF4AF630093C8235A226FF07A
:105948005901FDEEC87A17EE900AFFF799FF064B4A
:105958001B685863AFE700BF0000B4420000B4C240
:1059680034020020A8040020E403002008B52DED2F
:10597800028B00210F48FCF7EDFE00210E48FCF7D2
:10598800E9FE00210D48FCF7E5FE9FED0D8A0A208F
:10599800B0EE480AFFF782FF0B20B0EE480AFFF787
:1059A8007DFF0C20B0EE480AFFF778FFBDEC028BB4
:1059B80008BD00BF34020020A8040020E403002032
:1059C8000000B4C282B00A4B1A6C42F080521A64CA
:1059D8001A6C02F080520092009A5A6C42F480428B
:1059E8005A645B6C03F480430193019B02B07047D7
:1059F80000380240F0B58DB000230793089309934F
:105A08000A930B9302683A4B9A4201D00DB0F0BD4D
:105A1800A3F590431A6B42F000721A631A6B02F0F6
:105A280000720092009A1A6B42F080621A631A6B35
:105A380002F080620192019A1A6B42F000621A63C6
:105A48001A6B02F000620292029A1A6B42F0040288
:105A58001A631A6B02F004020392039A1A6B42F05B
:105A680001021A631A6B02F001020492049A1A6B7B
:105A780042F002021A631A6B02F002020592059ABA
:105A88001A6B42F040021A631B6B03F04003069343
:105A9800069B322307930226089603250A950B24B2
:105AA8000B9407A91348FBF745F886230793089634
:105AB800002709970A950B9407A90F48FBF73AF8AE
:105AC8004FF400530793089609970A950B9407A972
:105AD8000A48FBF72FF84FF42053079308960997C5
:105AE8000A950B9407A90648FBF724F88EE700BF30
:105AF800008002400008024000000240000402400A
:105B08000018024000B589B000230393049305935D
:105B1800069307930268144B9A4202D009B05DF8C5
:105B280004FB03F5FE331A6C42F400421A641A6C43
:105B380002F400420192019A1A6B42F004021A63BD
:105B48001B6B03F004030293029B4FF4E05303938F
:105B580002230493032306930623079303A9034808
:105B6800FAF7E8FFDAE700BF003C0040000802400F
:105B780084B00368154A934207D0154A93420FD060
:105B8800144A934217D004B07047134B5A6C42F032
:105B980001025A645B6C03F001030193019BF2E775
:105BA8000D4B5A6C42F002025A645B6C03F002031C
:105BB8000293029BE7E7084B5A6C42F480325A641E
:105BC8005B6C03F480330393039BDCE70000014024
:105BD80000040140004001400038024030B58DB05B
:105BE80000230793089309930A930B930368B3F16F
:105BF800804F07D03A4A934236D03A4A934250D01F
:105C08000DB030BD03F50E331A6C42F001021A6470
:105C18001A6C02F001020092009A1A6B42F001021B
:105C28001A631A6B02F001020192019A1A6B42F090
:105C380002021A631B6B03F002030293029B012406
:105C48000794022508950B9407A92748FAF772FFCD
:105C5800082307930895002309930A930B9407A92F
:105C68002248FAF767FFCBE7214B1A6C42F0020291
:105C78001A641A6C02F002020392039A1A6B42F039
:105C880002021A631B6B03F002030493049B302384
:105C98000793022308930B9307A91448FAF74AFFBE
:105CA800AEE7134B1A6C42F004021A641A6C02F045
:105CB80004020592059A1A6B42F008021A631B6BDC
:105CC80003F008030693069B4FF4405307930223FF
:105CD80008930B9307A90748FAF72CFF90E700BF32
:105CE8000004004000080040000002400004024098
:105CF80000380240000C024000B585B00368214A14
:105D080093420BD0204A93421BD0204A934223D07F
:105D18001F4A93422BD005B05DF804FB1D4B1A6C4B
:105D280042F010021A641B6C03F010030093009BEE
:105D3800002211463620FAF763FC3620FAF792FC67
:105D4800E9E7144B5A6C42F400325A645B6C03F472
:105D580000330193019BDEE70E4B5A6C42F480221C
:105D68005A645B6C03F480230293029BD3E7094BCC
:105D78001A6C42F080021A641B6C03F080030393D0
:105D8800039BC8E700100040004401400048014060
:105D9800001C00400038024000B58DB00023079376
:105DA800089309930A930B9303684B4A934211D0C3
:105DB8004A4A934224D04A4A934237D0494A9342A6
:105DC80049D0494A93425BD0484A93426DD00DB0BE
:105DD8005DF804FB464B1A6B42F010021A631B6B0A
:105DE80003F010030193019B4FF4D443079302235C
:105DF800089301230B9307A93E48FAF79BFEE6E7B1
:105E08003B4B1A6B42F004021A631B6B03F004034A
:105E18000293029B4FF470730793022308930323A2
:105E28000B9307A93448FAF785FED0E7304B1A6B75
:105E380042F010021A631B6B03F010030393039BD9
:105E4800202307930223089303230B9307A92948C8
:105E5800FAF770FEBBE7264B1A6B42F020021A6372
:105E68001B6B03F020030493049B40230793022336
:105E7800089303230B9307A92048FAF75BFEA6E7CC
:105E88001B4B1A6B42F020021A631B6B03F02003B2
:105E98000593059B802307930223089303230B9301
:105EA80007A91648FAF746FE91E7114B1A6B42F01C
:105EB80020021A631B6B03F020030693069B4FF422
:105EC800807307930223089309230B9307A90B48B0
:105ED800FAF730FE7BE700BF0000014000040140F4
:105EE800004001400044014000480140001C0040BF
:105EF800003802400010024000080240001402402E
:105F080000B58BB000230593069307930893099374
:105F18000368254A934205D0244A934223D00BB004
:105F28005DF804FB224B5A6C42F010025A645A6C1A
:105F380002F010020192019A1A6B42F001021A63F0
:105F48001B6B03F001030293029B4FF4C06305939C
:105F580002230693032308930723099305A91548E9
:105F6800FAF7E8FDDBE7124B1A6C42F480221A6458
:105F78001A6C02F480220392039A1A6B42F0080208
:105F88001A631B6B03F008030493049B4FF44073DC
:105F9800059302230693032308930723099305A96E
:105FA8000548FAF7C7FDBAE700100140004800406D
:105FB8000038024000000240000C02407047FEE733
:105FC800FEE7FEE7FEE770477047704708B5FAF747
:105FD800DFFA08BD08B50248FCF7B1F808BD00BFF4
:105FE8002804002010B40F4AD2F8883043F4700314
:105FF800C2F888300C4B196841F001011960002083
:1060080098601C6809492140196009495960196854
:1060180021F480211960D8604FF0006393605DF827
:10602800044B704700ED00E000380240FFFFF6FE29
:1060380010300024DFF834D0002103E00C4B5B580B
:10604800435004310B480C4B42189A42F6D30B4A82
:1060580002E0002342F8043B094B9A42F9D3FFF7C8
:10606800C1FF01F0AFFBFEF78BFE70470000082070
:10607800E07E0008000000209C0000209C0000201A
:10608800A8050020FEE7000000B510EE103A204AEF
:1060980023F00043934283B019DDB3F1FF4F04DBD3
:1060A80030EE400A03B05DF804FB684600F052FC8D
:1060B80000F00300012811D002281FD0B8B1012038
:1060C800DDED010A9DED000A01F03EF9EAE7DFED9A
:1060D800110A00F08FFD03B05DF804FBDDED010A45
:1060E8009DED000A01F030F9B1EE400ADAE7DDED86
:1060F800010A9DED000A00F07DFDD3E7DDED010A00
:106108009DED000A00F076FDB1EE400ACAE700BF37
:10611800D80F493F000000002DE9F0012DED068B56
:1061280083B08DED010A019A10EE901AA2F50004D1
:106138004800B4F1FE4F00F1FF33AB4C80F0818092
:10614800A34200F2E380002002F14043A749BFEEDA
:10615800009B03F54D03C3F3C344DB0D01EB0414AB
:10616800DB05D21A94ED00AB94ED028B91ED483B20
:1061780091ED442BDB1591ED464B91ED405B91ED94
:10618800426B07EE902A07EE103AB7EEE71AB7EE21
:10619800E00AAAEE019BB8EEC77BA9EE024B37EEE8
:1061A800087B29EE092BA9EE037BA9EE056B22EEED
:1061B800023BA2EE047BA6EE037B27EE007B17EEE4
:1061C800903A0025DA0B002392B248F2BE049D42B1
:1061D80008BF94424FD3B7EE000B854991ED406B51
:1061E80037EE065B53EC152B91ED465B43EC142B15
:1061F80002F01F0601EBC606141834EE466B37EEA4
:10620800467B91ED426BA7EE050B27EE074B91ED10
:10621800445BD6E90001A7EE065BA5EE040B002758
:106228003A184FEAC43848EB010343EC172B20EE29
:10623800070BB7EEC00B03B0BDEC068BBDE8F00151
:106248007047A34262D85300581EA04268D8002A5B
:106258002DDB0020B2F5000FBFF476AFDFED657AD5
:106268009DED017A67EE277A17EE903A23F0004306
:10627800A3F1386268E79FED566BB4EEC67BF1EE8A
:1062880010FA3ADC9FED546BB4EEC67BF1EE10FACF
:1062980023D99FED536BB4EEC67BF1EE10FA9AD575
:1062A80003B0BDEC068BBDE8F00101F0B9B8C1F34D
:1062B800C7537E2B18DD962B26DC0120C3F19603ED
:1062C80000FA03F3581E08420ED113EA010018BF62
:1062D8004FF4803022F00042BCE703B0BDEC068BDF
:1062E800BDE8F00101F096B89DED010A03B0BDECE0
:1062F800068BBDE8F00101F0B1B803B0BDEC068B28
:10630800BDE8F00101F092B80020E3E720BB82F479
:1063180080035B0013F5000F19D8B7EE000A8AE76F
:10632800DDED017A002A27EEA70A37DB00206BBBD8
:10633800002980DA03B0BDEC068BBDE8F00101F05E
:106348007BB881F480035B0013F5000FE5D9DDED20
:10635800017A37EEA00A6EE7B2F17E5FF1D0530002
:10636800B3F17F4FF3D8B0F17F4FF0D1B3F1FE4FC7
:10637800D3D0B3F1FE4F6FEA010134BF00230123EC
:10638800C90F8B421ED09FED1C0A54E70029BFF6A7
:1063980052AFF7EE007A87EE800A4CE7C1F3C75296
:1063A800A2F17F001728C1D8C2F19600012202FA93
:1063B80000F0441E0C42B9D10840B8D0B1EE400AF2
:1063C8001046B4E720EEA00A35E700BFAFF300801F
:1063D80071D5D1FFFFFF5F400000000000C062C020
:1063E8000000000000A062C0FEFFFFFE5878000811
:1063F800887D00080000004B0000000000B510EE8A
:10640800103A214A23F00043934283B01ADDB3F1D6
:10641800FF4F04DB30EE400A03B05DF804FB68462A
:1064280000F098FA00F00300012813D0022820D0C9
:10643800B8B1DDED010A9DED000A00F0DBFBB1EE1D
:10644800400AE9E70020DFED110A00F07DFF03B004
:106458005DF804FBDDED010A9DED000A00F0CAFBC2
:10646800DAE70120DDED010A9DED000A00F06CFF7E
:10647800D2E70120DDED010A9DED000A00F064FF7E
:10648800B1EE400AC8E700BFD80F493F000000003E
:1064980010B52DED028B254C8AB0B0EE408A00F085
:1064A800A7F894F900300133F0EE408A2ED0B4EE0C
:1064B800488AF1EE10FA29D6B0EE480A01F0BAF887
:1064C800F7EE007AB4EEE70AF1EE10FA1EDDB7EE49
:1064D800C88A0123164A009316480192002308939C
:1064E8008DED048B8DED028B00F0CAFF94F900301E
:1064F800022B8DED060B0FD0684600F0BFFF58B198
:10650800089B73B99DED060BF7EEC08BB0EE680AD9
:106518000AB0BDEC028B10BD01F04EF921230360D7
:10652800EEE701F049F9089B0360EBE7340000202F
:10653800807900088879000800F054B9000000004C
:1065480000B52DED028B8BB0B0EE408A00F04EFB0B
:10655800254B93F900305A1C09D0B4EE488AF1EE65
:1065680010FA04D6B5EEC08AF1EE10FA04D40BB0D6
:10657800BDEC028B5DF804FBB7EEC88A01221B490B
:10658800009200228DED048B8DED028B0191089213
:10659800B3B19FED137B022B87EE076B8DED066B76
:1065A80012D101F009F921230360089B93B99DEDED
:1065B800060BB7EEC00B0BB0BDEC028B5DF804FB0D
:1065C80000220023CDE90623684600F057FF002883
:1065D800EBD1E6E701F0F0F8089B0360E7E700BFBE
:1065E8000000000000000000340000208C79000842
:1065F80038B510EE105A25F00044B4F17E5F2DED49
:10660800048B68D060DCB4F17C5F0DDAB4F1485FCC
:106618006EDADFED647A70EE277AB7EE007AF4EE80
:10662800C77AF1EE10FA53DC01F004F8B7EE007AFD
:1066380037EE400AB6EE008A20EE088ADFED5A2AC5
:10664800DFED5A3A9FED5A3ADFED5A4A9FED5A4A22
:10665800DFED5A5A9FED5A5A9FED5A6ADFED5A6A92
:10666800DFED5A7AE8EE223AA8EE034AE3EE884ACA
:10667800A4EE085AE4EE885AE5EE086AA5EE886AA0
:10668800A6EE887AE6EE087AB0EE480AB0EE479AA7
:1066980067EE888A00F0AAFA4D4B9C425BDDC8EE93
:1066A800896A9FED4C7ADFED4C7AA0EE260AF0EE6F
:1066B800006AA0EE267A37EEC70ABDEC048B002DDF
:1066C800D8BFB1EE400A38BD70EE407A87EEA70A0F
:1066D800BDEC048B38BDDFED417A9FED3F7A60EE6B
:1066E800277ABDEC048BE0EE077AB0EE670A38BD76
:1066F80060EE007ADFED2C2ADFED2C3ADFED2D4A33
:106708009FED2B3A9FED2C4ADFED2C6A9FED2C5A1A
:10671800DFED2C5A9FED2C6A9FED2C7AE7EEA23A1A
:10672800BDEC048BE3EEA74AA7EE834AE4EEA76A22
:10673800A4EE275AE6EEA75AA5EE276AA5EEA77A91
:10674800F7EE006AE6EE276A67EE277A87EEA67A02
:10675800A0EE070A38BD10EE103A23F47F6323F049
:106768000F0307EE903AB1EE676AA6EE278A77EE36
:10677800807AC8EE895A88EE275A9FED187ADFED9D
:10678800187AF0EE006AA5EE667A30EE000AB0EEEE
:10679800675AA6EE265A90EE257A37EE450A37EE66
:1067A800C00A8AE7CAF2497108EF1138047F4F3AE4
:1067B8002EC69D3D461124BD613330BFA80A4E3E0A
:1067C8002D57014090B0A6BE39D119C0ABAA2A3EB8
:1067D8009999793F2EBD3B33DB0FC93F2EBD3BB3A3
:1067E800DB0F493F10B582B0CDED010A019B23F0C4
:1067F8000042B2F1FF4FF0EE407A17DC10EE100ABB
:1068080020F00041B1F1FF4F10DCB3F17E5F3BD0C7
:106818009C1704F0020444EAD07469B9022C47D0EA
:106828009FED410A032C00FE270A03E09DED017A43
:1068380037EE270A02B010BD3AB99FED3C0ADFEDEA
:106848003C7A002820FE270AF4E7B2F1FF4F20D057
:10685800B1F1FF4F2FD08A1AD2153C2A33DC002B16
:1068680034DA3C3232DA9FED330A012C40D0022C64
:1068780035D0002CDED0DFED307A9FED307A70EE27
:10688800277A37EEC70AD5E702B0BDE8104000F016
:10689800FFBDB1F1FF4F32D0022C09D0032C3AD002
:1068A800DFED277A9FED230A012C07FE800AC1E756
:1068B8009FED220ABEE7DFED1D7A9FED1D0A002835
:1068C80027FE800AB6E79FED190ACEE79DED010A7B
:1068D80087EE800A00F0AEFE00F0DAFDC5E7DFEDD6
:1068E800167A9FED167A70EE277A37EE670AA1E7D7
:1068F80010EE103A03F1004300EE103A9AE7022C2A
:106908000FD0032C0AD0DFED0F7A9FED0F0A012C70
:1069180007FE800A8EE79FED040A8BE79FED0B0ABE
:1069280088E79FED0B0A85E7DB0F49C0DB0FC93FFE
:10693800DB0FC9BF000000002EBDBB33DB0F494091
:1069480000000080DB0F49BFDB0F493FE4CB16C0D6
:10695800E4CB164070B510EE103A964A23F0004486
:10696800944286B0054669DD934A944210EE106A57
:106978001ADC002B24F00F04DFED907A904A64DDD6
:10698800944270EE677A00F0CF809FED8E7A77EEB2
:10699800C76A012077EEE67AC5ED006A77EEC77A16
:1069A800C5ED017A06B070BD874A944261DDB4F145
:1069B800FF4F80F2B180E215863AA4EBC25307EE8E
:1069C800903ABDEEE77ADFED816AB8EEC77A77EEE6
:1069D800C77A8DED037A67EEA67ABDEEE77AB8EE50
:1069E800C77A77EEC77A8DED047A67EEA67AF5EE68
:1069F800407AF1EE10FACDED057A40F0C780B5EE99
:106A0800407AF1EE10FA0CBF01230223704901917C
:106A18000221009103A8294600F06EF9002E12DA2F
:106A280095ED007AD5ED017AB1EE477AF1EE677A05
:106A3800404285ED007AC5ED017A04E0002285ED3B
:106A4800000A4260002006B070BD944270EE277ABA
:106A580000F089809FED5B7A77EE876A4FF0FF3010
:106A680077EEE67AC5ED006A77EE877AC5ED017AAA
:106A7800E9E700F0DFFDDFED576ADFED505A9FEDE3
:106A8800517AF6EE007AE0EE267AFDEEE77A17EE16
:106A9800900AF8EEE76A1F28B1EE666AA6EE250AA4
:106AA80066EE877A52DD30EE677A17EE103AE41513
:106AB800C3F3C753E31A082B52DDDFED477A9FED86
:106AC800477AF0EE405AE6EE275A30EE650AA6EE0F
:106AD800270AF0EE407AD6EE877A35EEE77A17EE97
:106AE800103AC3F3C753E41A192C51DC85ED007A28
:106AF800B0EE650A30EE470A002E30EE670A85EDE3
:106B0800010AA0DAB1EE477AB1EE400A85ED007AC3
:106B180085ED010A404296E770EE407A0020C5ED07
:106B2800017AC5ED007A8EE7DFED2B6A9FED2B7AAF
:106B380077EEE67A012077EEC76A77EEE67AC5ED5A
:106B4800006A77EEC77AC5ED017A7CE7421E244BCE
:106B580053F8223024F0FF029A4230EE677AA4D02C
:106B680085ED007AC6E7DFED1C6A9FED1C7A77EEAB
:106B7800A67A4FF0FF3077EE876A77EEE67AC5EDB2
:106B8800006A77EE877AC5ED017A5CE703233DE773
:106B98009FED147A9FED145AB0EE650AA6EE070A27
:106BA80075EEC07AE6EE077AD6EE857A30EE677A29
:106BB800D6E700BFD80F493FE3CB1640800FC93F47
:106BC800D00FC93F43443537800F49430000804305
:106BD800147A000884F9223F0044353708A3852E2B
:106BE8009479000800A3852E32318D24B1EEC00AB5
:106BF800704700BF10EE103A23F00043B3F1485F2E
:106C08002CDAFDEEC07A17EE903A002B5BD020EE1E
:106C1800007ADFED314A9FED315ADFED315A9FEDB1
:106C2800316ADFED317ADFED316AA7EE245AE7EEFB
:106C3800055AA7EE256AE7EE067AE7EE276A66EEBA
:106C4800876A60EEC00AB6EE006AE7EE260AF7EE3B
:106C5800007AD7EE060A37EEE00A704720EE007A8F
:106C6800DFED1D4A9FED1D5ADFED1D5A9FED1D6A90
:106C7800DFED1D7ADFED1D6A1D4AA7EE245A934207
:106C8800E5EE075AA5EE876AE6EE077AE7EE876A29
:106C980066EE876AD5DD174A934217DC03F17F4316
:106CA80007EE903AB7EE006A36EE676A60EEC00A01
:106CB800F6EE005AE7EE260AD7EE257A77EEE07A66
:106CC80036EE670A7047B7EE000A7047B6EE076AF5
:106CD800F5EE027AEAE700BF4ED747ADF6740F31FA
:106CE8007CF293B4010DD037610BB6BAABAA2A3D3A
:106CF8009999993E0000483F2DE9F04F2DED048BFE
:106D0800D7B003F1FF390293D31E48BF131DB24C0D
:106D1800649D0591DB1023EAE37354F8256003931F
:106D280003F10108A2EBC80816EB09028646A3EB9B
:106D3800090316D41A449FEDA97A6598511C1AAA1A
:106D4800002BA4BF50F8234007EE904A03F101033B
:106D5800ACBFF8EEE77AF0EE477A8B42E2EC017AC4
:106D6800EED1029B002E4FEA83044FEA860A1DDB10
:106D78001AAB181943AA7346191902EB0A0742AD50
:106D8800F446B9F1000FDFED957A09DB0246634658
:106D9800F3EC016A32ED017A8B42E6EE877AF7D19D
:106DA800E5EC017ABD4200F10400EAD1AAF108033A
:106DB80006ADEB1804939FED8B9ADFED898A009658
:106DC80005ABB34674449A4442AF76464FEA8B010A
:106DD80056AB0B44BBF1000F13ED140A16DD07EB9D
:106DE8008B032A4660EE097AB0EE407AFDEEE77A28
:106DF80073ED016AF8EEE77ABB42A7EEE87A37EE60
:106E0800A60ABDEEC77AA2EC017AEBD14046019101
:106E180000F05EFCB0EE408AB4EE000A28EE000AEC
:106E280000F010FCF2EE007AA0EE678AB8F1000FCD
:106E38000199FDEEC89AF8EEE97A38EE678A40F3D0
:106E4800C4800BF1FF3CC8F1080355F82C2042FA26
:106E580003F000FA03F3D31A45F82C3019EE90CA60
:106E68008444C8F1070209EE90CA43FA02F2002AE4
:106E780031DD19EE903ABBF1000F03F1010309EE81
:106E8800903A40F329822868002840F08680BBF1B8
:106E9800010F0BD0AE464FF0010C5EF8040F0CF159
:106EA800010300287CD19B459C46F6D1B8F1000F20
:106EB8000EDDB8F1010F00F03281B8F1020F07D1F1
:106EC8000BF1FF3155F8213003F03F0345F821302D
:106ED800022A00F01281B5EE408AF1EE10FA40F075
:106EE8009580009B0BF1FF3C63450EDC0BF1804164
:106EF800013905EB8101002051F80439514540EA78
:106F08000300F9D1002840F01381009B013B55F89C
:106F18002330002B40F00081049B4FF0010C53F804
:106F280004290CF1010C002AF9D0DC440BF1010E04
:106F3800E64530DC039B029A0EEB03015A4403EB4F
:106F48000C0B1AAB01F1804103EB8202659B0139FE
:106F580003EB810107EB8E0E03EB8B0B51F8043F1B
:106F68009FED1E7A07EE903AF8EEE77A1046B9F1EF
:106F7800000FE0EC017A09DB334601E072ED017A9B
:106F8800F3EC016AA342A6EEA77AF7D15945AEEC15
:106F9800017A0246E2D1E34618E701234FF0000CDC
:106FA800C0F580709B4545F82C000CDD55F8230092
:106FB800294405EB830300E01868C0F1FF0043F89B
:106FC800040B8B42F8D1012070E70FD10BF1FF338E
:106FD80055F8232012124AE7587D000800000000E7
:106FE800000080430000803B0000C93FF6EE007AB5
:106FF800B4EEE78AF1EE10FA80F25881B5EE408AD5
:10700800F1EE10FA4FF000023FF46BAFB0EE480A11
:10701800C8F100009146009E00F05AFB1FED107A5F
:10702800B4EEC70AF1EE10FAC0F258815FED137A98
:1070380060EE277A0BF10103FDEEE77A08F1080804
:10704800F8EEE77AA7EEC70AFDEEE77ABDEEC00ACA
:1070580010EE102A45F82B2017EE902A45F8232029
:107068004046B7EE000A009300F032FB009B002B6D
:10707800C0F24B81980042AA00F1040C1FED277A58
:107088001044011D05EB0C0272ED017AF8EEE77A67
:10709800AA4267EE807A20EE070A61ED017AF3D101
:1070A8000DF1B80E1FED306A0546774603F1010869
:1070B8000024002EC0F20581A148DFEDA27A2946FE
:1070C800B0EE467A002203E0A24208DCB0EC017A76
:1070D800F1EC016A01329642E6EE877AF4DA01347D
:1070E8004445E7EC017AA5F10405E2D1649A032A44
:1070F80053D8DFE802F0CAB6B65BB7EE000A30EE46
:10710800488A00283FF4E7AE4046019200F0E0FAD2
:10711800019A38EE408ADEE64FF0010C05E70BF1E4
:10712800FF3155F8213003F07F0345F82130CFE6D1
:10713800914655F82C20009E6346A8F10808002ABD
:107148008ED10CF18042013A05EB820252F8041903
:10715800013BA8F108080029F8D081E74A46DFED8D
:10716800797A002A40F0C2809DED2E7A059A002B8C
:10717800C2ED007A77EE677A0CDD2FA90122B1EC17
:10718800017A0132934277EE877AF8DA4B46002B80
:1071980040F0B880059BC3ED017A19EE903A03F0F0
:1071A800070057B0BDEC048BBDE8F08F002B40F30F
:1071B800C480980056AA02440DF1B80E03F180412C
:1071C80052ED286A01390EEB830272ED017A37EE2F
:1071D800A67A964577EEC77A82ED007A77EEA67A98
:1071E800F0EE476AC2ED017AEFD1012B40F3A5809A
:1071F80056AB184489000B1D50ED286A73442FAA1A
:1072080073ED017A37EEA67A9A4277EEC77A83ED64
:10721800007A77EEA67AF0EE476AC3ED017AEFD1ED
:107228000831DFED487A0EEB01030EF1080E33ED5D
:10723800017A9E4577EE877AF9D14B46DDED2E6AC5
:107248009DED2F7A2BB1F1EE666AB1EE477AF1EE39
:10725800677A059BC3ED006A83ED017AC3ED027A74
:107268009BE7002BFFF67AAF2EA901EB8302DFED37
:10727800357A043232ED017A914277EE877AF9D184
:107288004A46002A3FF470AF30E0DFED2E7AF4442E
:107298003CED017AE64577EE877AF9D14B460BB19A
:1072A800F1EE677A059BC3ED007A76E719EE903A1E
:1072B800BBF1000F03F1010309EE903A37DD02221A
:1072C800E1E5DFED207A01344445E7EC017AA5F1E8
:1072D80004057FF4EEAE09E70020E7E5BDEEC00A3D
:1072E8005B4610EE102A45F82B20B9E6DDED2E6A34
:1072F800059AB1EE677A002B76EEE77A82ED007A8E
:107308003FF73BAFF1EE677A44E7649A032A3FF60A
:1073180044AF01A151F822F0317300086B720008E4
:107328006B720008B5710008DFED067AB6E7F7EE74
:10733800007A37EEC88A0222CDE5DFED027A7CE7D3
:10734800307D00080000000010EE103A23F00043E2
:10735800B3F1485F04DAFDEEC07A17EE903A23B332
:1073680060EE007A9FED155ADFED155A9FED156A0C
:10737800DFED156A9FED157AE7EE855A20EE275A5C
:10738800A5EEA76AE6EE276AA6EEA77A70B127EE01
:10739800457AF6EE006AA0EEA67ADFED0D6AD7EE22
:1073A800270AE5EE260A30EE600A7047DFED096A23
:1073B800E7EE876AA6EE850A704700BFD3C92E2F6D
:1073C800342FD7B21BEF3836010D50B98988083CE5
:1073D800ABAA2A3EABAA2ABE10B52DED028BB0EEA1
:1073E800408A044600F0E8F9B0EE480ABDEC028B8A
:1073F800046010BD30B1F1EE407A27EE800A2220F9
:10740800FFF7EABFF0EE407A27EE800A2220FFF766
:10741800E3BF00BF9FED010AFFF7ECBF00000010BB
:107428009FED010AFFF7E6BF0000201A9FED010A51
:10743800FFF7E0BF000000709FED070AFFEE007A3B
:10744800B7EE007A00284FF0220047FE277A87EE31
:10745800800AFFF7C1BF00BF0000000070EE407A4D
:10746800B4EE400A87EEA77AF1EE10FAB0EE470ABA
:1074780002D62120FFF7B0BF704700BF0020704739
:107488009FED010B704700BF000000000000F87F6F
:1074980038B510EE105A25F00044B4F1A14FF0EEC3
:1074A800407A0ADBB4F1FF4F57DCDFED4F7A9FEDEE
:1074B8004F0A002D30FE270A38BD4D4B9C425BDC3D
:1074C800B4F1445F4CDB4FF0FF3367EEA76ADFEDA2
:1074D800491ADFED492A9FED492A9FED493ADFED28
:1074E800493A9FED494ADFED494A9FED495ADFED98
:1074F800495A9FED490A9FED496A26EEA67A5A1C19
:10750800E7EE212AA7EE023AE2EE873AA3EE074A0F
:10751800E3EE874AA4EE075AE4EE875AA5EE070A77
:10752800A5EE876A20EE070AA6EE260A20EE270AAD
:1075380037D03B493B4A9B00194491ED007A30EE25
:10754800470A134430EE670AD3ED007A002D37EE70
:10755800C00AB1DAB1EE400A38BD30EE000A38BDD3
:107568009FED317A30EE077AF7EE006AB4EEE67AEC
:10757800F1EE10FAA7DD38BD00F05CF82B4B9C4209
:1075880012DCA3F5D0039C4223DCF0EE007ABFEEB8
:10759800007AA0EE277A002330EE270AC7EE007A99
:1075A80093E737EEC00A38BD214B9C420BDCF7EE5F
:1075B800087AB7EE007AA0EE277A022330EE670A3F
:1075C800C0EE077A81E7BFEE007AC7EE007A0323A0
:1075D8007BE7F7EE007A30EE677A30EE270A012370
:1075E800C7EE007A71E700BFDB0FC9BFDB0FC93FE9
:1075F800FFFFDF3ED769853C59DA4B3D21A215BD17
:107608006BF16EBD356B883D95879DBD6E2EBA3D7D
:10761800388EE3BD2549123ECDCC4CBEABAAAA3E5E
:10762800747D0008647D0008CAF24971FFFF973F26
:10763800FFFF1B4010EE103A23F0004300EE103A13
:10764800704700BF10EE102A22F00041CB0D7F3B9F
:10765800162B1CDC002B10EE100A1EDB19491941F1
:107668000A4227D0DFED187A70EE277AF5EEC07A55
:10767800F1EE10FA1EDD002A04DA4FF4000242FA95
:1076880003F3184420EA010300EE103A7047B1F101
:10769800FF4F0FD330EE000A7047DFED0B7A70EE24
:1076A800277AF5EEC07AF1EE10FA03DD002A02DB44
:1076B8009FED060A7047FFEE007A002900FE270AB0
:1076C800704700BFFFFF7F00CAF249710000000049
:1076D80008B510EE103A33F000422DED028B11D0B0
:1076E800B2F1FF4F11D2B2F5000F13D3D20D0244FD
:1076F800FE2A1CDC002A2ADD23F0FF4343EAC2539A
:1077080000EE103ABDEC028B08BDBDEC028B30EEEA
:10771800000A08BD1D4BDFED1E7A984220EE270AAD
:1077280010DB10EE103AC3F3C752193ADFE79FEDAA
:10773800198AF0EE400AB0EE480A00F031F820EE5F
:10774800080ADFE7DFED140A20EE200ADAE712F173
:10775800160F0EDA4CF250339842E8DC9FED0E8A91
:10776800F0EE400AB0EE480A00F01AF820EE080AD7
:10777800C8E7193223F0FF4343EAC253DFED077A23
:1077880000EE103A20EE270ABCE700BFB03CFFFF2E
:107798000000004CCAF249716042A20D000000339B
:1077A80010EE103A10EE902A23F0004302F0004247
:1077B800134300EE103A7047014B1868704700BF3A
:1077C8003800002070B50D4E0D4CA41BA4100025E8
:1077D800A54209D10B4E0C4C00F020F8A41BA410B4
:1077E8000025A54205D170BD56F8253098470135CA
:1077F800EEE756F8253098470135F2E7D87E0008BD
:10780800D87E0008D87E0008DC7E000802440346C3
:10781800934200D1704703F8011BF9E7F8B500BFA0
:10782800F8BC08BC9E467047F8B500BFF8BC08BC59
:047838009E467047B1
:107840000000000000000000010203040607080910
:107850000000000001020304BEF3F879EC61F63F7A
:107860001930965BC6FEDEBF3D88AF4AED71F53F2D
:10787000A4FCD432680BDBBFB010F0F03995F43FB4
:107880007BB71F0A8B41D7BF8503B8B095C9F33FBB
:107890007BCF6D1AE99DD3BFA564880C190DF33F0A
:1078A00031B6F2F39B1DD0BFA08E0B7B225EF23F60
:1078B000F07A3B1B1D7CC9BF3F341A4A4ABBF13FDB
:1078C0009F3CAF93E3F9C2BFBAE58AF05823F13F7A
:1078D0005C8D78BFCB60B9BFA70099413F95F03F61
:1078E000CE5F47B69D6FAABF000000000000F03FCA
:1078F0000000000000000000AC479AFD8C60EE3FE5
:107900003DF5249FCA38B33FA06A021FB3A4EC3FE1
:10791000BA913854A976C43FE6FC6A573620EB3F4B
:10792000D2E4C44A0B84CE3F2DAAA163D1C2E93F61
:107930001C65C6F04506D43FED417803E686E83F76
:10794000F89F1B2C9C8ED83F624853F5DC67E73FBD
:10795000CC7BB14EA4E0DC3F0B6E49C91676D23F1A
:107960007AC675A06919D7BFDDBAA76C0AC7DE3F12
:10797000C8F6BE484715E7BF2BB82A654715F73F3D
:107980006173696E6600000000000000737172741C
:1079900066000000000FC93F000F494000CB964031
:1079A000000FC9400053FB4000CB164100ED2F41B2
:1079B000000F49410031624100537B41003A8A4146
:1079C00000CB9641005CA34100EDAF41007EBC417D
:1079D000000FC94100A0D5410031E24100C2EE4193
:1079E0000053FB4100F20342003A0A420083104276
:1079F00000CB164200141D42005C234200A5294220
:107A000000ED2F4200363642007E3C4200C7424223
:107A1000000F4942A2000000F900000083000000AE
:107A20006E0000004E000000440000001500000041
:107A300029000000FC0000002700000057000000A3
:107A4000D1000000F500000034000000DD0000005F
:107A5000C0000000DB000000620000009500000094
:107A6000990000003C00000043000000900000006E
:107A700041000000FE000000510000006300000013
:107A8000AB000000DE000000BB000000C5000000ED
:107A900061000000B7000000240000006E0000003C
:107AA0003A000000420000004D000000D20000003B
:107AB000E000000006000000490000002E00000069
:107AC000EA00000009000000D10000009200000060
:107AD0001C000000FE0000001D000000EB00000084
:107AE0001C000000B100000029000000A7000000F9
:107AF0003E000000E80000008200000035000000A9
:107B0000F50000002E000000BB0000004400000053
:107B100084000000E90000009C00000070000000EC
:107B200026000000B40000005F0000007E0000009E
:107B3000410000003900000091000000D600000064
:107B400039000000830000005300000039000000ED
:107B5000F40000009C000000840000005F000000B2
:107B60008B000000BD000000F900000028000000AC
:107B70003B0000001F000000F8000000970000001C
:107B8000FF000000DE00000005000000980000007B
:107B90000F000000EF0000002F00000011000000A7
:107BA0008B0000005A0000000A0000006D00000079
:107BB0001F0000006D000000360000007E00000085
:107BC000CF00000027000000CB00000009000000EB
:107BD000B70000004F000000460000003F0000001A
:107BE000660000009E0000005F000000EA00000048
:107BF0002D0000007500000027000000BA00000002
:107C0000C7000000EB000000E5000000F1000000EC
:107C10007B0000003D00000007000000390000006C
:107C2000F70000008A0000005200000092000000EF
:107C3000EA0000006B000000FB0000005F00000095
:107C4000B10000001F0000008D0000005D0000007A
:107C50000800000056000000030000003000000093
:107C600046000000FC0000007B0000006B000000EC
:107C7000AB000000F0000000CF000000BC000000DE
:107C8000200000009A000000F40000003600000010
:107C90001D000000A9000000E300000091000000AA
:107CA000610000005E000000E60000001B00000014
:107CB0000800000065000000990000008500000039
:107CC0005F00000014000000A00000006800000039
:107CD000400000008D000000FF000000D800000000
:107CE000800000004D00000073000000270000002D
:107CF0003100000006000000060000001500000032
:107D000056000000CA00000073000000A800000038
:107D1000C900000060000000E20000007B000000DD
:107D2000C00000008C0000006B0000000000C93F94
:107D30000000F0390000DA370000A2330000842E82
:107D40000000502B0000C2270000D0220000C41FFA
:107D50000000C61B000044170400000007000000DC
:107D6000090000003863ED3EDA0F493F5E987B3F23
:107D7000DA0FC93F6937AC3168212233B40F1433AD
:107D80006821A23300000000000000000000F03F66
:107D9000748515D3B0D9EF3F0F89F96C58B5EF3F13
:107DA000515B12D00193EF3F7B517D3CB872EF3FA6
:107DB000AAB968318754EF3F3862756E7A38EF3F61
:107DC000E1DE1FF59D1EEF3F15B7310AFE06EF3FBE
:107DD000CBA93A37A7F1EE3F2234124CA6DEEE3F94
:107DE0002D89616008CEEE3F272A36D5DABFEE3FF7
:107DF000824F9D562BB4EE3F295448DD07ABEE3F32
:107E000085553AB07EA4EE3FCD3B7F669EA0EE3F07
:107E1000745FECE8759FEE3F8701EB7314A1EE3FB2
:107E200013CE4C9989A5EE3FDBA02A42E5ACEE3F8C
:107E3000E5C5CDB037B7EE3F90F0A38291C4EE3FD9
:107E40005D253EB203D5EE3FADD35A999FE8EE3F94
:107E5000475EFBF276FFEE3F9C5285DD9B19EF3FBC
:107E60006990EFDC2037EF3F87A4FBDC1858EF3F29
:107E70005F9B7B33977CEF3FDA90A4A2AFA4EF3FE8
:107E800040456E5B76D0EF3F000000000000E84206
:107E90009423914BF86AAC3FF3C4FA50CEBFCE3F67
:107EA000D6520CFF422EE63F00000000000038438F
:107EB000FE822B65471547409423914BF86ABC3EE0
:107EC000F3C4FA50CEBF2E3FD6520CFF422E963F3F
:087ED0009883FF7F0100000010
:047ED8001D0200087F
:047EDC00F9010008A0
:107EE00001000000100000000000FA430000B4C2CE
:107EF0000000B4C20000B4C2010000004260E53BD3
:107F0000A6FFFFFFA6FFFFFFA6FFFFFF0000B4C212
:107F10000024F400010000003C00002000000000EC
:107F20000000000000000000000000000000000051
:107F30000000000000000000000000000000000041
:107F40000000000000000000000000000000000031
:107F50000000000000000000000000000000000021
:107F60000000000000000000000000000000000011
:0C7F700000000000000000000000000005
:040000050800603D52
:00000001FF
